:100000000C9462000C948A000C948A000C948A0070
:100010000C948A000C948A000C948A000C948A0038
:100020000C948A000C948A000C948A000C948A0028
:100030000C948A000C948A000C948A000C948A0018
:100040000C940C030C948A000C947C030C945603BF
:100050000C948A000C948A000C948A000C948A00F8
:100060000C948A000C948A000000000024002700F1
:100070002A0000000000250028002B0000000000DE
:1000800023002600290004040404040404040202DA
:100090000202020203030303030301020408102007
:1000A0004080010204081020010204081020000012
:1000B0000008000201000003040700000000000027
:1000C0000000AE0311241FBECFEFD8E0DEBFCDBFCE
:1000D00011E0A0E0B1E0E6E3FCE002C005900D9283
:1000E000A236B107D9F722E0A2E6B1E001C01D9225
:1000F000A737B207E1F710E0C2E6D0E004C02197CD
:10010000FE010E940E06C136D107C9F70E943B04CA
:100110000C9419060C94000096E0899FD0011124DC
:10012000A85FBD4F90967C936E935F9791E09196F8
:100130009C93919790917402E0917502F0917602F0
:10014000992339F0309751F0811108C08091240231
:1001500004C0309719F05C968C9109940895CF9261
:10016000DF92EF92FF920F931F9396E0899FF00129
:100170001124E85FFD4F11A2278D30A121303105F8
:1001800039F158F02230310509F447C023303105E8
:1001900009F04FC060E070E044C0662309F449C034
:1001A00061E070E00E948C002FB7F89480916701A5
:1001B00090916801A0916901B0916A012FBF80936D
:1001C000600290936102A0936202B093630231C017
:1001D0009FB7F894C0906701D0906801E0906901E2
:1001E000F0906A019FBF009160021091610220911E
:1001F000620230916302C01AD10AE20AF30A009146
:1002000072021091730220E030E00C151D052E05DE
:100210003F0518F462E070E004C061110AC063E0B9
:1002200070E01F910F91FF90EF90DF90CF900C94B2
:100230008C001F910F91FF90EF90DF90CF90089569
:10024000833081F028F4813099F08230A1F0089554
:100250008730A9F08830B9F08430D1F480918000E3
:100260008F7D03C0809180008F77809380000895F8
:1002700084B58F7702C084B58F7D84BD0895809149
:10028000B0008F7703C08091B0008F7D8093B00065
:100290000895CF93DF93282F30E0F901E255FF4F07
:1002A0008491F901E656FF4FD491F901EA57FF4FC7
:1002B000C491CC2391F081110E942001EC2FF0E039
:1002C000EE0FFF1FE458FF4FA591B491EC91ED2381
:1002D00081E090E021F480E002C080E090E0DF91D6
:1002E000CF9108951F93CF93DF93282F30E0F9012A
:1002F000E255FF4F8491F901E656FF4FD491F90181
:10030000EA57FF4FC491CC23C1F0162F81110E94F0
:100310002001EC2FF0E0EE0FFF1FEE58FF4FA591EC
:10032000B4919FB7F894111104C08C91D095D82343
:1003300002C0EC91DE2BDC939FBFDF91CF911F9128
:100340000895CF93DF9390E0FC01E656FF4F249190
:10035000FC01EA57FF4F8491882361F190E0880FF8
:10036000991FFC01E859FF4FC591D491FC01EE584B
:10037000FF4FA591B491611109C09FB7F89488818E
:10038000209582238883EC912E230BC0623061F488
:100390009FB7F8948881322F309583238883EC911E
:1003A0002E2B2C939FBF06C08FB7F894E8812E2B7D
:1003B00028838FBFDF91CF910895862F642F0C94EF
:1003C000A101862F642F0C947201862F0C94490191
:1003D000CF92DF92EF92FF920F931F93CF93DF9311
:1003E0006C017A018B01C0E0D0E0CE15DF0581F011
:1003F000D8016D918D01D601ED91FC910190F081B4
:10040000E02DC6010995892B11F02196EECF7E01D2
:10041000C701DF91CF911F910F91FF90EF90DF9077
:10042000CF900895089580E090E00895FC01538DE9
:10043000448D252F30E0842F90E0821B930B5417BE
:1004400010F0CF96089501970895FC01918D828D4B
:10045000981761F0828DDF01A80FB11D5D968C9118
:10046000928D9F5F9F73928F90E008958FEF9FEF23
:100470000895FC01918D828D981731F0828DE80FDF
:10048000F11D858D90E008958FEF9FEF0895FC0199
:10049000918D228D892F90E0805C9F4F821B910966
:1004A0008F73992708958BE691E00E94470221E01F
:1004B000892B09F420E0822F0895FC01848DDF014F
:1004C000A80FB11DA35ABF4F2C91848D90E00196C7
:1004D0008F739927848FA689B7892C93A089B189B6
:1004E0008C91837080648C93938D848D981306C057
:1004F0000288F389E02D80818F7D80830895EF92BB
:10050000FF920F931F93CF93DF93EC0181E0888FCD
:100510009B8D8C8D981305C0E889F989808185FDB4
:1005200026C0F62E0B8D10E00F5F1F4F0F731127A3
:10053000E02E8C8DE8120CC00FB607FCFACFE889CC
:10054000F989808185FFF5CFCE010E945D02F1CF50
:100550008B8DFE01E80FF11DE35AFF4FF0829FB72C
:10056000F8940B8FEA89FB89808180620AC09FB76B
:10057000F894EE89FF896083E889F9898081837026
:10058000806480839FBF81E090E0DF91CF911F91D5
:100590000F91FF90EF900895CF93DF93EC01888D3A
:1005A0008823C9F0EA89FB89808185FD05C0A88977
:1005B000B9898C9186FD0FC00FB607FCF5CF8081FD
:1005C00085FFF2CFA889B9898C9185FFEDCFCE0147
:1005D0000E945D02E7CFDF91CF91089580E090E027
:1005E000892B29F00E94530281110C940000089578
:1005F000009769F0FC0101900020E9F73197AF0105
:10060000481B590BBC018BE691E00C94E80180E09B
:1006100090E008950E9414061F920F920FB60F9259
:1006200011242F933F938F939F93AF93BF93809108
:10063000670190916801A0916901B0916A013091C0
:10064000660123E0230F2D3720F40196A11DB11D73
:1006500005C026E8230F0296A11DB11D2093660157
:100660008093670190936801A0936901B0936A0138
:100670008091620190916301A0916401B091650144
:100680000196A11DB11D8093620190936301A09317
:100690006401B0936501BF91AF919F918F913F919C
:1006A0002F910F900FBE0F901F9018951F920F92D1
:1006B0000FB60F9211242F933F934F935F936F9335
:1006C0007F938F939F93AF93BF93EF93FF938BE6AB
:1006D00091E00E945D02FF91EF91BF91AF919F91D8
:1006E0008F917F916F915F914F913F912F910F90DB
:1006F0000FBE0F901F9018951F920F920FB60F927A
:1007000011242F938F939F93EF93FF93E0917B019D
:10071000F0917C018081E0918101F091820182FD64
:1007200012C09081809184018F5F8F732091850129
:10073000821751F0E0918401F0E0E559FE4F958F6A
:100740008093840101C08081FF91EF919F918F91EF
:100750002F910F900FBE0F901F90189510926E0161
:1007600010926D0188EE93E0A0E0B0E080936F01FD
:1007700090937001A0937101B09372018CE191E0AC
:1007800090936C0180936B0185EC90E090937801DD
:100790008093770184EC90E090937A0180937901C3
:1007A00080EC90E090937C0180937B0181EC90E061
:1007B00090937E0180937D0182EC90E09093800184
:1007C00080937F0186EC90E0909382018093810179
:1007D0001092840110928501109286011092870177
:1007E00010920A0210920E0210920D0210920F0245
:1007F0008EE291E09093090280930802E8E0F2E033
:10080000148E10A2178E11A2369682E0E434F807F7
:10081000B9F784E091E090936B0280936A0280E0E4
:1008200091E090936D0280936C0284E080936E025D
:1008300080936F0288E091E0909369028093680250
:100840008AE090E0909371028093700284EF91E0CF
:100850009093730280937202109276021092750246
:100860001092640210926502109266021092670262
:10087000109274020895789484B5826084BD84B522
:10088000816084BD85B5826085BD85B5816085BD8B
:1008900080916E00816080936E0010928100809143
:1008A00081008260809381008091810081608093CB
:1008B0008100809180008160809380008091B100F0
:1008C00084608093B1008091B00081608093B0001B
:1008D00080917A00846080937A0080917A008260AF
:1008E00080937A0080917A00816080937A00809171
:1008F0007A00806880937A001092C100E0917B01B9
:10090000F0917C0182E08083E0917701F0917801A1
:100910001082E0917901F0917A018FEC808310923E
:100920008301E0917F01F091800186E08083E09176
:100930007D01F0917E01808180618083E0917D0165
:10094000F0917E01808188608083E0917D01F0914B
:100950007E01808180688083E0917D01F0917E013D
:1009600080818F7D808384E391E00E94F80286E598
:1009700091E00E94F80286E591E00E94F8022224AC
:100980002394812C912C5401839466246A94762CB0
:1009900066E0362E209274028FB7F894409167017A
:1009A000509168016091690170916A018FBF8091D7
:1009B000640290916502A0916602B0916702481BA3
:1009C000590B6A0B7B0B8091700290917102A0E031
:1009D000B0E084179507A607B70708F0F3C0C0E09A
:1009E00080916E02C81710F0512C40C0E0916A024D
:1009F000F0916B02EC0FF11D62E080810E94A10179
:100A0000CF5FEECFC42DD0E0E0916A02F0916B028F
:100A1000EC0FFD1F80810E9449012496CC0FDD1F41
:100A2000C85FDD4F892B09F04BC0888199818C29E3
:100A30009D2999838883439480916E02481610F310
:100A4000E0916C02F0916D02E00FF11F61E0808196
:100A50000E94720180916C0290916D02FC01E00F86
:100A6000F11F60E080810E94A101539480916F0288
:100A7000581658F5052D10E0E0916C02F0916D02CA
:100A8000E00FF11F61E080810E94A101E0916C0202
:100A9000F0916D02E00FF11F60E080810E94720111
:100AA000D501C401052C04C0880F991FAA1FBB1FC4
:100AB0000A94D2F76C017C01E094F094412CBCCFF5
:100AC000888199818E219F21B4CFC8E0D2E0FE01B8
:100AD000878D90A1892B21F4148E768E658E11A2BC
:100AE000369622E0E434F20799F710E080916E0226
:100AF000181770F500E0E12EF12CC701880F991F3F
:100B0000FC01E05FFD4F7F0120916F020217F0F4BE
:100B1000F70140815181002E02C0569547950A94F5
:100B2000E2F7642F6170129F90011124200F311D94
:100B3000E8E0F2E080E0A58DB68D2A173B0709F4C6
:100B400063C08F5F36968A30B1F741C01F5FCECF4A
:100B500080E099A1911181E02696F2E0C434DF078C
:100B6000C1F79FB7F8944091670150916801609177
:100B7000690170916A019FBF4093640250936502BE
:100B800060936602709367028823E1F080912902E6
:100B90008823C1F08091270290912802019791F457
:100BA000C0912402CC2381F089E591E00E94F802F3
:100BB0006C2F8BE691E00E947F0286E591E00E9417
:100BC000F80202C0109274020E94EE02E3CE40FFCF
:100BD0001DC0E8E0F2E080E090E0448D411118C0D3
:100BE000E0916802F0916902E20FF31F7081389E74
:100BF000A001399E500D1124FA01E85FFD4F748F5A
:100C0000368F258F10A2178E0E94AF000F5F7CCF0A
:100C1000019636968A30910501F7F8CFEE0FFF1F47
:100C20000590F491E02D099481E090E0F8940C9403
:060C30001906F894FFCF45
:100C360005040302090807063132334134353642CA
:100C4600373839432A302344000000007F02E80188
:100C56001602CC0247022502390200000000DD011F
:100C6600E101E5015465636C61646F2034783420DA
:100C7600636F6E204269626C696F74656361204BB5
:100C86006579706164000D0A005465636C613A20F1
:020C960000005C
:107E0000112484B714BE81FFF0D085E080938100F7
:107E100082E08093C00088E18093C10086E0809377
:107E2000C20080E18093C4008EE0C9D0259A86E02C
:107E300020E33CEF91E0309385002093840096BBD3
:107E4000B09BFECF1D9AA8958150A9F7CC24DD24C4
:107E500088248394B5E0AB2EA1E19A2EF3E0BF2EE7
:107E6000A2D0813461F49FD0082FAFD0023811F036
:107E7000013811F484E001C083E08DD089C08234E0
:107E800011F484E103C0853419F485E0A6D080C0E4
:107E9000853579F488D0E82EFF2485D0082F10E0AE
:107EA000102F00270E291F29000F111F8ED06801E7
:107EB0006FC0863521F484E090D080E0DECF843638
:107EC00009F040C070D06FD0082F6DD080E0C81688
:107ED00080E7D80618F4F601B7BEE895C0E0D1E017
:107EE00062D089930C17E1F7F0E0CF16F0E7DF06D8
:107EF00018F0F601B7BEE89568D007B600FCFDCFD4
:107F0000A601A0E0B1E02C9130E011968C91119780
:107F100090E0982F8827822B932B1296FA010C0160
:107F200087BEE89511244E5F5F4FF1E0A038BF0790
:107F300051F7F601A7BEE89507B600FCFDCF97BE46
:107F4000E89526C08437B1F42ED02DD0F82E2BD052
:107F50003CD0F601EF2C8F010F5F1F4F84911BD097
:107F6000EA94F801C1F70894C11CD11CFA94CF0C13
:107F7000D11C0EC0853739F428D08EE10CD085E9AC
:107F80000AD08FE07ACF813511F488E018D01DD067
:107F900080E101D065CF982F8091C00085FFFCCF94
:107FA0009093C60008958091C00087FFFCCF809118
:107FB000C00084FD01C0A8958091C6000895E0E648
:107FC000F0E098E1908380830895EDDF803219F02E
:107FD00088E0F5DFFFCF84E1DECF1F93182FE3DFCA
:107FE0001150E9F7F2DF1F91089580E0E8DFEE27F6
:047FF000FF270994CA
:027FFE00040479
:0400000300007E007B
:00000001FF
