:100000000C94CC000C94F4000C94F4000C94F400C8
:100010000C94F4000C94F4000C94F4000C94F40090
:100020000C94F4000C94F4000C946C050C94DB0517
:100030000C94F4000C94F4000C94F4000C94F40070
:100040000C94F4000C94F4000C94F4000C94F40060
:100050000C94F4000C94F4000C94F4000C940D082F
:100060000C94F4000C94F4000C94F4000C94F40040
:100070000C94F4000C94F4000C94F4000C94F40030
:100080000C94F4000C94F4000C94F4000C94F40020
:100090000C94F4000C94F4000C94F4000C94F40010
:1000A0000C94F4000C94F4000C94F4000000000292
:1000B00000090F0000030401000C00000000000014
:1000C0000000000000000000000000080B00020219
:1000D00002010009040000010202000005240010D2
:1000E000010524010101042402060524060001077C
:1000F00005810310004009040100020A0000000706
:1001000005020240000007058302400000040309C5
:100110000412010002EF020140412341800001016D
:1001200002030141726475696E6F204C4C430041BB
:10013000726475696E6F2059756E000000000025AD
:100140000028002B002E00310000000000240027B2
:10015000002A002D003000040404040403040502F6
:100160000202020403020202020606060606060452
:10017000040202020404040802011040804010201E
:10018000408040800802040180402010020110805D
:10019000102040402000570811241FBECFEFDAE0A6
:1001A000DEBFCDBF11E0A0E0B1E0E4EFF2E102C0BC
:1001B00005900D92AA34B107D9F721E0AAE4B1E085
:1001C00001C01D92A13DB207E1F710E0CCECD0E0F8
:1001D00004C02197FE010E947209CB3CD107C9F7E8
:1001E0000E9489080C9478090C94000090E0FC01AE
:1001F000EA58FE4F2491895A9E4FFC01849188232E
:1002000099F090E0880F991FFC01E75BFE4FA591E4
:10021000B491FC01E55CFE4F859194918FB7F89401
:10022000EC91E22BEC938FBF0895FC018091680163
:10023000882311F13FB7F89482E08093E900209180
:10024000F200822F90E01816190614F481E090E075
:10025000882339F0289844E6409367014091F100E3
:100260004083222339F02091F200211103C02BE6B4
:100270002093E8003FBF08958FEF9FEF08952FB7B9
:10028000F89483E08093E9009091E800892F8072D0
:1002900095FF04C09091F20080E4891B2FBF089560
:1002A00080915F0181110DC082E080935B0184E049
:1002B00080935C0110925E0110925D0181E0809359
:1002C0005F018BE591E00895CF93DF931F92CDB747
:1002D000DEB76983DC01ED91FC910280F381E02DB2
:1002E00041E050E0BE016F5F7F4F09950F90DF91B5
:1002F000CF91089583E08093E9008091F2008823F4
:1003000019F08AE38093E80008950E943F0190E08D
:100310000895CF93DF931F92CDB7DEB7FC0184859C
:10032000958597FD08C02FEF3FEF358724870F9005
:10033000DF91CF910895CE0101960E94150101979A
:1003400019F4898190E0F3CF8FEF9FEFF0CF0F93F7
:100350001F93CF93DF931F92CDB7DEB78C01FC01C3
:100360008485958597FF0BC0CE0101960E941501EB
:10037000019771F4898190E0F80195878487F801ED
:10038000848595850F90DF91CF911F910F910895EE
:100390008FEF9FEFF1CFFC018485958597FD0BC012
:1003A0009FB7F89482E08093E9008091F2009FBFAC
:1003B00090E0019608959FB7F89482E08093E90059
:1003C0008091F2009FBF90E00895409155015091B7
:1003D0005601209153013091540142175307B4F450
:1003E0009091E8009570E1F39091E80092FD19C0BA
:1003F0008093F100809155019091560101968F7381
:100400009927892B19F48EEF8093E800809155018C
:10041000909156010196909356018093550181E089
:10042000089580E00895EF92FF920F931F93CF936A
:10043000DF93F82E192FE62E042F81E0860F880F08
:100440000E94E50183E00E94E501CF2DD12FEC0E43
:10045000FD2EF11CCE15DF05B9F007FF13C0FE011C
:1004600084910E94E501182F80E00E94E50181231C
:1004700021968111EFCFDF91CF911F910F91FF90C6
:10048000EF9008958881EDCF81E0F5CFDF92EF9274
:10049000FF920F931F93CF93DF93D82E8A01EB0126
:1004A0007B01E40EF51ECE15DF0559F0D7FE12C014
:1004B000FE0184910E94E50121968111F4CF0FEF96
:1004C0001FEFC801DF91CF911F910F91FF90EF9027
:1004D000DF9008958881EECF0F931F93CF93DF9322
:1004E0001F92CDB7DEB782E0898342E450E06BEC27
:1004F00070E080E80E9446020E945001DC011296E2
:100500000D911C910115110589F0D801ED91FC9117
:100510000280F381E02DBE016F5F7F4FC801099516
:1005200097FD04C0F80100851185ECCF89810F90FB
:10053000DF91CF911F910F910895615030F020917C
:10054000F100FC0120830196F8CF289884E680937F
:1005500067010895AF92BF92CF92DF92EF92FF9220
:100560000F931F93CF93DF936C017B018B01040FDB
:10057000151FEB015E01AE18BF08C017D10759F077
:100580006991D601ED91FC910190F081E02DC601B9
:100590000995892B79F7C501DF91CF911F910F91B3
:1005A000FF90EF90DF90CF90BF90AF900895282FED
:1005B00030E0F901E455FF4F9491F901EA58FE4FFC
:1005C0008491295A3E4FF9012491222309F430C025
:1005D0009923E9F091509F30D0F4E92FF0E0ED50ED
:1005E000FD4F0C94720921032503020319031D0317
:1005F00007030703070328032E03320336033C03D4
:1006000007034003909180009F7790938000E22F32
:10061000F0E0EE0FFF1FE55CFE4FA591B4919FB790
:10062000F894EC91611132C080958E238C939FBF1A
:100630000895909180009F7DE8CF90918000977FF2
:10064000E4CF94B59F7794BDE2CF94B59F7DFBCF67
:10065000909190009F7790939000D9CF90919000C7
:100660009F7DF9CF90919000977FF5CF9091C0003A
:100670009F779093C000CBCF9091C0009F7DF9CF22
:100680009091C200977F9093C200C1CF8E2BCECFA6
:100690003FB7F89480914F0190915001A091510182
:1006A000B091520126B5A89B05C02F3F19F00196C5
:1006B000A11DB11D3FBFBA2FA92F982F8827BC01BC
:1006C000CD01620F711D811D911D42E0660F771FE4
:1006D000881F991F4A95D1F708958F929F92AF92E4
:1006E000BF92CF92DF92EF92FF924B015C010E948A
:1006F00048036B017C010E9448036C197D098E0937
:100700009F09683E734081059105A8F321E0821A94
:100710009108A108B10888EEC80E83E0D81EE11C3C
:10072000F11C81149104A104B10429F7FF90EF900A
:10073000DF90CF90BF90AF909F908F9008958F9251
:100740009F92AF92BF92CF92DF92EF92FF920F9360
:100750001F93CF93DF936C017B018A0180910B0182
:10076000882309F45CC080916801882309F457C08C
:1007700080915A0180FF05C08091E00082608093E3
:10078000E000E801B12C8AEFA82E93E0892E2AE33D
:10079000922E209711F4BB20D9F10E943F018111C4
:1007A0000AC0AA94AA20D9F161E070E080E090E04C
:1007B0000E946D03EECF8C171D0611F00CF08C2FEC
:1007C0009FB7F8948092E9002091E80025FD02C0CF
:1007D0009FBFDFCF282F30E0C21BD30BF701815022
:1007E00020F041914093F100FACFE20EF31EBB20BE
:1007F00021F09092E800B12CEBCF8091E80085FDCC
:10080000E7CF9092E800BB24B394209709F3F3CF8D
:100810005D9884E680935901101611063CF081E042
:1008200090E0F6019383828310E000E0C801DF913D
:10083000CF911F910F91FF90EF90DF90CF90BF90DD
:10084000AF909F908F900895089590E080E0089574
:10085000CF93DF93EC0160E08E810E94D70261E0CC
:100860008E810E94D70260E08E810E94D7028BE8C1
:1008700091E00197F1F7DF91CF910895CF92DF9248
:10088000EF92FF920F931F93CF93DF936C017C0144
:1008900087E0E80EF11CD0E0C0E0062F10E0B801C0
:1008A0000C2E02C0759567950A94E2F76170F70106
:1008B00081917F010E94D7022196C430D10579F73A
:1008C000C601DF91CF911F910F91FF90EF90DF90C4
:1008D000CF900C942804CF92DF92EF92FF920F9367
:1008E0001F93CF93DF93EC01F62E642F8C810E942F
:1008F000D7028D818F3F19F060E00E94D7020F2D43
:1009000010E08F8584FF25C06E0187E0C80ED11CE2
:10091000F12CE12CB8010E2C02C0759567950A9454
:10092000E2F76170F60181916F010E94D702FFEF3B
:10093000EF1AFF0A88E0E816F10461F7CE01DF91B3
:10094000CF911F910F91FF90EF90DF90CF900C947B
:100950002804B80184E0759567958A95E1F7CE0182
:100960000E943E046F2DCE01DF91CF911F910F9118
:10097000FF90EF90DF90CF900C943E0440E0682F02
:1009800089EB91E00C946B04CF93DF93823029F4D0
:100990009091C80198609093C8018093CC01109207
:1009A000CD0180E48093CE0180E18093CF0180E58A
:1009B0008093D0018091BD010E94F6008091BE011C
:1009C0008F3F11F00E94F6008091BF010E94F60057
:1009D000C9EBD1E09E01295B31408091C80184FDC3
:1009E0000AC084E090E02196281739073CF48E81F4
:1009F0000E94F600EFCF88E090E0F5CF8BE39DE01A
:100A00000197F1F760E08091BD010E94D70260E09C
:100A10008091BF010E94D7028091BE018F3F19F0E3
:100A200060E00E94D7028091C80184FD39C063E074
:100A300089EB91E00E943E04CBE4D6E4CE0101971D
:100A4000F1F763E089EB91E00E943E042197F1F712
:100A500063E089EB91E00E943E0483E592E0019718
:100A6000F1F762E089EB91E00E943E048091C801B9
:100A700080620E94BE0484E08093C9018CE00E94E1
:100A8000BE0481E00E94BE048BE39FE10197F1F771
:100A900082E08093CA0186E0DF91CF910C94BE047E
:100AA00080620E94BE048BE496E40197F1F7809186
:100AB000C80180620E94BE0483E592E00197F1F7CD
:100AC0008091C80180620E94BE04D0CF41E00E94A4
:100AD0006B0481E090E008951F920F920FB60F9281
:100AE00011248F939F938091E1009091E100937F77
:100AF0009093E10083FF0FC01092E90091E0909382
:100B0000EB001092EC0092E39093ED0010926801DC
:100B100098E09093F00082FF22C093E09093E90068
:100B20009091F200992319F09AE39093E800909144
:100B30005901992341F09091590191509093590195
:100B4000911101C05D9A90916701992341F09091B4
:100B50006701915090936701911101C0289A84FF19
:100B600018C08091E2008E7E81608093E2008091C7
:100B7000E1008F7E8093E10080915A018E7E80613A
:100B800080935A019F918F910F900FBE0F901F90ED
:100B9000189580FFF7CF8091E2008E7E8061809370
:100BA000E2008091E1008E7E8093E10080915A0105
:100BB0008E7E8160E5CF1F920F920FB60F921124A7
:100BC000CF92DF92EF92FF920F931F932F933F9359
:100BD0004F935F936F937F938F939F93AF93BF9345
:100BE000EF93FF93CF93DF93CDB7DEB76C97DEBF64
:100BF000CDBF1092E9008091E80083FF25C068E036
:100C0000CE0145960E949D0282EF8093E8008D8977
:100C100087FF39C09091E80090FFFCCF982F907625
:100C200009F034C19E894F89588D2F89F88C911114
:100C300031C0803861F5809158018093F1001092A5
:100C4000F1008EEF8093E8006C960FB6F894DEBF4B
:100C50000FBECDBFDF91CF91FF91EF91BF91AF91CB
:100C60009F918F917F916F915F914F913F912F91C4
:100C70001F910F91FF90EF90DF90CF900F900FBEDC
:100C80000F901F9018959EEF9093E800C7CF109299
:100C9000F100D5CF913059F48111D3CF41305105B6
:100CA00081F6809158018D7F80935801CACF93308F
:100CB00049F48111C6CF4130510519F68091580190
:100CC0008260F2CF953041F48091E80080FFFCCF44
:100CD00020682093E300B5CF963009F0A9C00B8DB2
:100CE0001C8D22E01092E9001092560110925501DD
:100CF000F2122EC010925401109253010E946C0205
:100D00001F8299E09983FA8291E09E8390EA988706
:100D10009AEF99872091550130915601275F3F4FF7
:100D20003C832B838D831092E90010925601109220
:100D30005501109354010093530149E050E0BE0166
:100D40006F5F7F4F80E00E9446020E946C0279CF65
:100D500010935401009353010E945001DC0112963C
:100D60000D911C910115110509F451C1D801ED91A6
:100D7000FC910480F581E02DBE016B5E7F4FC801C0
:100D80000995009709F03EC1F80100851185EACF69
:100D9000F3E0FF120EC08F89882309F440C082302F
:100DA00061F440E86BE08FE291E00E941302811150
:100DB00048CF81E28093EB0047CF813029F440E8AF
:100DC0006BE083E291E0F1CF833099F70E9450010C
:100DD000DC011296ED90FC908E010F5F1F4F6801B1
:100DE000E114F10479F0D701ED91FC910680F781CF
:100DF000E02DB801C7010995080F111DF701E08426
:100E0000F184EECFD8011C92F60101900020E9F7A1
:100E10003197BF016C197D0940E0C601C6CF6DE076
:100E200071E0FB01449150E080E80E94460209CF46
:100E3000973009F4BECF983021F481E08093F1001F
:100E400000CF993009F0FDCE837009F0B2CFEDE00C
:100E5000F1E081E031E096E32191222371F080936B
:100E6000E9003093EB00DF0111972C912093EC0007
:100E70009093ED008F5F873079F78EE78093EA00DB
:100E80001092EA008F8980936801DBCE8B8D9C8D58
:100E90001092E9001092560110925501909354015E
:100EA00080935301898D811192C08E899D89913AD9
:100EB00049F4813209F07DCF47E050E064E071E011
:100EC00080E0B3CF913209F074CF833269F48F8917
:100ED000988DB0E0A0E08093000190930101A09371
:100EE0000201B0930301ADCE803269F48091E80035
:100EF00082FFFCCF67E084E091E00E949D028BEFCF
:100F00008093E8009ECE823209F09BCE8F89809339
:100F10000B01EEEFFFE7859194918B3F9C4D51F1D2
:100F2000E0E0F8E08091040190910501A0910601B4
:100F3000B0910701803B9440A105B105F1F4809187
:100F40000B0180FD1AC0EE3F8AE0F80789F587E7BC
:100F500097E791838083809160008093570188E1B7
:100F60009BE00FB6F894A895809360000FBE909315
:100F7000600067CEEEEFFAE0D5CF808191818737B0
:100F8000974709F05ECEA8958091600088618093B4
:100F900060008091570180936000EE3F2AE0F207E5
:100FA00089F08091FE0A9091FF0A9183808349CE57
:100FB000808191818737980751F29093FF0A80933F
:100FC000FE0AC5CF1092FF0A1092FE0A3ACE0E9486
:100FD0005001DC0112960D911C910115110509F4C7
:100FE000E8CED801ED91FC910190F081E02DBE0199
:100FF0006B5E7F4FC8010995811123CEF8010085F2
:101000001185EBCF181619060CF41BCED2CEF1E0E9
:10101000FF12BECE61E171E004CF1F920F920FB6B6
:101020000F9211242F933F938F939F93AF93BF936E
:1010300080914B0190914C01A0914D01B0914E01D6
:1010400030914A0123E0230F2D3758F50196A11D59
:10105000B11D20934A0180934B0190934C01A093C2
:101060004D01B0934E0180914F0190915001A0919C
:101070005101B09152010196A11DB11D80934F0104
:1010800090935001A0935101B0935201BF91AF9141
:101090009F918F913F912F910F900FBE0F901F90B6
:1010A000189526E8230F0296A11DB11DD2CFE9E6BF
:1010B000F1E01382128288EE93E0A0E0B0E0848336
:1010C0009583A683B78387E191E0918380838FEF37
:1010D0009FEF95878487E9EBF1E01382128289E222
:1010E00091E0918380838AE0848389E0858388E02E
:1010F000868385E0878384E0808783E0818782E040
:1011000082871386148615861686178681E00C94CE
:10111000C404789484B5826084BD84B5816084BD44
:1011200085B5826085BD85B5816085BD80916E0085
:10113000816080936E0010928100809181008260B6
:1011400080938100809181008160809381008091F3
:101150008000816080938000809191008260809304
:101160009100809191008160809391008091900026
:101170008160809390008091C10084608093C10061
:101180008091C10082608093C1008091C100816024
:101190008093C1008091C30081608093C3008091DF
:1011A000C00082608093C0008091C2008160809303
:1011B000C20080917A00846080937A0080917A00E6
:1011C000826080937A0080917A00816080937A00B7
:1011D00080917A00806880937A0010926801109262
:1011E000580110925A018091D70081608093D700F6
:1011F00080EA8093D80089B5806189BD89B5826015
:1012000089BD09B400FEFDCF61E070E080E090E0B0
:101210000E946D038091D8008F7C80618093D800FC
:101220008091E000807F8093E0008091E1008E7EDD
:101230008093E1008DE08093E200559A209A82E04D
:101240000E94C404E1E08091CC018111E0E0E195CD
:10125000F0E0E754FE4F848980680E94BE044EE0AF
:1012600050E061E371E089EB91E00E94AA02E09115
:10127000CC01E230A8F5E150F0E0E754FE4F84895C
:101280008D5F80680E94BE0449E050E060E471E038
:1012900089EB91E00E94AA02C0E0D0E08091C901F0
:1012A0008D7F8093C90188600E94BE0464EF71E065
:1012B00080E090E00E946D038091C901982F9260B8
:1012C0009093C9018A600E94BE0464EF71E080E0DF
:1012D00090E00E946D03209709F30E940000DECF8A
:1012E000E1E0CACFEE0FFF1F0590F491E02D0994C5
:0412F000F894FFCFA0
:1012F400FFFFFFFF00E100000000000000C180814B
:101304000000000000000064019F0385017A01CB06
:10131400018901A701000000006605AA0225042432
:10132400044374726C204174756D617469636F0059
:0A133400456475636163696F6E0024
:1070000055C000006EC000006CC000006AC00000E7
:1070100068C0000066C0000064C0000062C00000DC
:1070200060C000005EC00000FCC400005AC0000048
:1070300058C0000056C0000054C0000052C00000FC
:1070400050C000005DC000004CC000004AC00000FD
:1070500048C0000046C0000044C0000042C000001C
:1070600040C000003EC000003CC000003AC000002C
:1070700038C0000036C0000034C0000032C000003C
:1070800030C000002EC000002CC000002AC000004C
:1070900028C0000026C0000024C0000022C000005C
:1070A00020C000001EC000001CC0000011241FBE34
:1070B000CFEFDAE0DEBFCDBF11E0A0E0B1E0E6E463
:1070C000FFE702C005900D92A63AB107D9F711E08B
:1070D000A6EAB1E001C01D92AF3BB107E1F74FD383
:1070E00030C78ECFF89410926F001092810081E02B
:1070F00085BF15BE47985D9A289A0C9400000895A4
:107100001F920F920FB60F9211242F938F939F937C
:10711000EF93FF9310928500109284008091A60156
:107120009091A701009741F001979093A701809358
:10713000A601892B09F45D9A8091A8019091A9017B
:10714000009741F001979093A9018093A801892BA2
:1071500009F4289A8091AC019091AD010196909329
:10716000AD018093AC01E0E0F0E0859194918F5FF8
:107170009F4F49F08091AA019091AB0101969093A5
:10718000AB018093AA01FF91EF919F918F912F9175
:107190000F900FBE0F901F90189584E08093E90028
:1071A0000DC08091E8008B778093E80003C08EB318
:1071B000882351F08091E80082FFF9CF8091E800A8
:1071C00085FFEFCF8091F1000895982F83E08093A1
:1071D000E9008091E80085FD0DC08091E8008E7780
:1071E0008093E80003C08EB3882369F08091E800A3
:1071F00080FFF9CF9093F1005D9884E690E0909342
:10720000A7018093A60108954F925F926F927F929B
:107210008F929F92AF92BF92CF92DF92EF92FF92A6
:107220000F931F93CF93DF9384E08093E9008091C5
:10723000E80082FF57C2289884E690E09093A90165
:107240008093A801AADF182F853481F48CE49DE196
:107250009093AB018093AA0107B600FCFDCFF9998A
:10726000FECF81E180935700E89503C0843519F47F
:1072700094DF8DE00DC28C34E1F38035D1F3843797
:1072800021F484E4A2DF80E003C2813611F489E5B1
:10729000FFC18134B1F481DF182F7FDF90E0880FC8
:1072A000991FAA2797FDA095BA2F312F330F20E001
:1072B000442737FD4095542F822B932BA42BB52BBD
:1072C000B8C1803711F483E5E3C1833549F4C0E0E8
:1072D000D1E089917ADF21E0C730D207D1F7D9C157
:1072E000863521F481E371DF80E3D2C1833731F445
:1072F00087E86BDF85E969DF8EE1CAC18536B9F4BD
:10730000E0E0F0E093E085E090935700E89507B661
:1073100000FCFDCF80935700E89507B600FCFDCF39
:10732000E058FF4FA0E7E030FA0771F7A2CF8237AD
:1073300039F4E1E0F0E089E0809357008491A8C13E
:10734000863439F4E0E0F0E089E0809357008491DE
:107350009FC18E3439F4E3E0F0E089E08093570078
:10736000849196C1813539F4E2E0F0E089E08093C0
:10737000570084918DC1823631F489E526DF80E0A3
:1073800024DF80E885C1823419F0873609F0E5C032
:107390001092AB011092AA0100DF082FFEDEF82E3A
:1073A000FCDE682E8554823008F071C1902F80E099
:1073B000CF2DD0E0C82BD92B10926F00173609F0D3
:1073C0004BC081E180935700E895DD24CC24C39421
:1073D0003FC0E090AF01F090B0010091B101109179
:1073E000B201B6E46B16D9F4ED2DF0E0EE29FF29D9
:1073F000E4918E2FEADEDD2081F082E090E0A0E0D3
:10740000B0E0E80EF91E0A1F1B1FE092AF01F092D8
:10741000B0010093B1011093B201DC2418C0D8016F
:10742000C701B695A7959795879575D5CEDE82E06D
:1074300090E0A0E0B0E0E80EF91E0A1F1B1FE092EA
:10744000AF01F092B0010093B1011093B201219706
:10745000209709F0BECF7DC08090AF019090B00121
:10746000A090B101B090B20196E4691609F05DC038
:1074700083E0F40180935700E89507B600FCFDCF48
:1074800054C0F6E46F1661F5772031F1E090AF015A
:10749000F090B0010091B1011091B2017EDED82EC2
:1074A000CC24852D90E08C299D29F7010C01409278
:1074B0005700E895112482E090E0A0E0B0E0E80EEB
:1074C000F91E0A1F1B1FE092AF01F092B00100935A
:1074D000B1011093B20102C060DE582E742423C0A3
:1074E000E090AF01F090B0010091B1011091B201B4
:1074F00016950795F794E79450DE682FC70113D5CA
:107500008091AF019091B001A091B101B091B20111
:107510000296A11DB11D8093AF019093B001A0937D
:10752000B101B093B201219704C0552477244424BB
:107530004394209709F0A5CF96E4691641F485E0BD
:10754000F40180935700E89507B600FCFDCF8DE06D
:107550003CDE82E080936F009CC0833471F4009124
:10756000AF011091B00119DE90E021E0F8010C01AB
:1075700020935700E89511247CCE833619F5E090CE
:10758000AF01F090B0010091B1011091B20105DEA0
:10759000F701E16090E021E00C0120935700E895AD
:1075A000112482E090E0A0E0B0E0E80EF91E0A1F8E
:1075B0001B1FE092AF01F092B0010093B101109354
:1075C000B20157CE8D3661F4E091AF01F091B00178
:1075D00085E080935700E89507B600FCFDCF49CEC3
:1075E000823551F4E091AF01F091B0010591149111
:1075F000812FEBDD802F4CC0843421F5E090AF016A
:10760000F090B0010091B1011091B201169507956B
:10761000F794E794C2DD682FC70185D48091AF014C
:107620009091B001A091B101B091B2010296A11D5B
:10763000B11D8093AF019093B001A093B101B093BD
:10764000B20117CE843609F5E090AF01F090B00199
:107650000091B1011091B201D801C701B695A7956B
:107660009795879558D4B1DD82E090E0A0E0B0E036
:10767000E80EF91E0A1F1B1FE092AF01F092B00145
:107680000093B1011093B20104C08B3111F08FE36C
:107690009CDD83E08093E9009091E8008091E80010
:1076A0008E778093E80095FF04C010C08EB38823C6
:1076B000C9F08091E80080FFF9CF8091E8008E77D3
:1076C0008093E80003C08EB3882361F08091E800C6
:1076D00080FFF9CF84E08093E9008091E8008B7708
:1076E0008093E800DF91CF911F910F91FF90EF9071
:1076F000DF90CF90BF90AF909F908F907F906F90D2
:107700005F904F9008959091B701892F8F778132C4
:1077100049F58091B8018032A1F0813219F5913A92
:1077200009F58091E800877F8093E8008CE091E084
:1077300067E070E027D28091E8008B778093E800C3
:107740000895913279F48091E800877F8093E80072
:107750008CE091E067E070E079D28091E8008E776C
:107760008093E800089582E061EC42E0D1D083E0AC
:1077700061E842E1CDD084E060E842E1C9C01F93F6
:10778000209100081092000844B714BE88E10FB69B
:10779000F89480936000109260000FBE80E8E0E0F3
:1077A000F0E00FB6F89480936100E09361000FBEA3
:1077B00031E035BF92E095BF3F9A209A559A809369
:1077C00061001092610047985D9A289A1092890092
:1077D0008AEF8093880090936F0083E0809381000C
:1077E000859194918F5F9F4F11F03093AE01942F4C
:1077F00041FF19C0809109012817A9F08093000862
:10780000789480911301882339F08091AC01909194
:10781000AD018F5E9240C8F310920008F89481E0A9
:10782000809313010CC090FF04C08091AE018823A7
:1078300051F493FF09C080910901281729F0809124
:10784000AE01882309F04EDCD4D078941092AB01BD
:107850001092AA011EEF20C0D7DC4BD38091AA0161
:107860009091AB0181549F4110F0109213018091CF
:10787000B3019091B40101969093B4018093B30148
:10788000292F97FF03C0512F591B252F220F28178F
:1078900010F4479801C0479A809113018823E1F6BC
:1078A0008091E00081608093E0001CDC80E090E04B
:1078B0001F910895FA01923049F0933061F09130B0
:1078C000F9F484E191E022E130E01EC086E291E02B
:1078D0002EE330E019C0882329F484E691E024E007
:1078E00030E012C0813029F488E691E022E230E0F5
:1078F0000BC0823029F48CE891E028E130E004C02C
:1079000080E090E020E030E091838083C901089519
:107910008093E9008091EB0081608093EB001092EE
:10792000ED006093EC004093ED008091EE00881F25
:107930008827881F08958091B70188238CF403C09D
:107940008EB38823B1F08091E80082FFF9CF809157
:10795000E8008B778093E80008958EB3882349F080
:107960008091E80080FFF9CF8091E8008E778093C6
:10797000E8000895EF92FF920F931F9345D04CD0EB
:1079800008ED10E0F80180818F7780838081806826
:10799000808380818F7D808319BC1EBA1092B501CF
:1079A00080EEE82EF12CF70180818B7F8083F80137
:1079B00080818160808380E060E042E0A9DFE1EEC9
:1079C000F0E080818E7F8083E2EEF0E08081816054
:1079D0008083808188608083F70180818E7F8083AF
:1079E000F8018081806180831F910F91FF90EF905B
:1079F0000895E7EDF0E08081816080838AE482BFB2
:107A000081E08093B601B6CFE8EDF0E080818E7F13
:107A100080831092E20008951092DA001092E10043
:107A200008951F920F920FB60F9211242F933F9338
:107A30004F935F936F937F938F939F93AF93BF9376
:107A4000EF93FF938091DA0080FF1BC08091D800F4
:107A500080FF17C08091DA008E7F8093DA008091DA
:107A6000D90080FF0BC080E189BD82E189BD09B4E6
:107A700000FEFDCF81E08EBB3BD203C019BC1EBA15
:107A800037D28091E10080FF17C08091E20080FF33
:107A900013C08091E2008E7F8093E2008091E2002B
:107AA00080618093E2008091D80080628093D8004A
:107AB00019BC85E08EBB1CD28091E10084FF2CC0F4
:107AC0008091E20084FF28C080E189BD82E189BD08
:107AD00009B400FEFDCF8091D8008F7D8093D8003F
:107AE0008091E1008F7E8093E1008091E2008F7EA3
:107AF0008093E2008091E20081608093E2008091B7
:107B0000B501882331F48091E30087FD02C081E054
:107B100001C084E08EBBECD18091E10083FF21C0E5
:107B20008091E20083FF1DC08091E100877F8093F8
:107B3000E10082E08EBB1092B5018091E1008E7F62
:107B40008093E1008091E2008E7F8093E20080913B
:107B5000E20080618093E20080E060E042E0D8DEF5
:107B6000C7D1FF91EF91BF91AF919F918F917F917D
:107B70006F915F914F913F912F910F900FBE0F909A
:107B80001F9018959C014091BD015091BE01461770
:107B9000570718F4F90190E044C06115710511F020
:107BA000AB01F8CF8091E8008E778093E80040E049
:107BB00050E0F0CF8EB3882309F444C0853009F437
:107BC00043C08091E80083FF02C081E00895809166
:107BD000E80082FD31C08091E80080FF22C08091E2
:107BE000F3009091F200782F60E0292F30E0262BEF
:107BF000372B07C081918093F100415050402F5F97
:107C00003F4F4115510519F02830310598F390E0A8
:107C10002830310509F491E08091E8008E77809357
:107C2000E8004115510531F6992321F605C08EB3C0
:107C3000882341F0853041F08091E80082FFF7CF42
:107C400080E0089582E0089583E008959C01611525
:107C5000710529F48091E8008B778093E800F901A1
:107C600026C08EB3882391F1853091F18091E80090
:107C700083FF02C081E008958091E80082FFF1CF88
:107C800006C08091F10081936150704059F02091BD
:107C9000F3008091F200322F20E090E0822B932BB2
:107CA000892B79F78091E8008B778093E800611544
:107CB0007105B9F605C08EB3882341F0853041F0D7
:107CC0008091E80080FFF7CF80E0089582E008957A
:107CD00083E008950F931F93DF93CF9300D0CDB728
:107CE000DEB7E7EBF1E08091F100819381E0EF3BBB
:107CF000F807C9F708DD8091E80083FFE4C08091B0
:107D0000B7019091B801953009F46DC0963040F4F8
:107D1000913081F1913070F0933009F0D4C02AC0D5
:107D2000983009F4A3C0993009F4B2C0963009F034
:107D3000CAC07CC0803809F4C6C0823809F0C3C00C
:107D40008091BB0187708093E9008091EB001092D5
:107D5000E9002091E800277F2093E80090E025E0EB
:107D6000969587952A95E1F781708093F10010929E
:107D7000F10087C0882319F0823009F0A4C08F7108
:107D8000823009F0A0C08091B901882331F520919B
:107D9000BB01277009F497C02093E9008091EB00A4
:107DA00080FF1BC0933021F48091EB00806213C0F0
:107DB0008091EB0080618093EB0081E090E002C055
:107DC000880F991F2A95E2F78093EA001092EA0043
:107DD0008091EB0088608093EB001092E900809125
:107DE000E800877F51C0882309F06DC01091B90168
:107DF0001F770FB7F8948091E800877F8093E800A1
:107E00009ADD8091E80080FFFCCF8091E3008078CC
:107E1000812B8093E30080688093E300112311F4A9
:107E200082E001C083E08EBB0FBF4DC0805882301E
:107E300008F049C08091B9019091BA016091BB01ED
:107E4000AE014F5F5F4F36DDBC01009709F43BC0C8
:107E50008091E800877F8093E80089819A8192DE93
:107E60008091E8008B778093E8002DC0803859F529
:107E70008091E800877F8093E8008091B50180932E
:107E8000F1008091E8008E778093E80054DD1BC0FC
:107E90008823C9F49091B9019230A8F48091E80048
:107EA000877F8093E8009093B50145DD8091B5010F
:107EB000882331F48091E30087FD02C081E001C096
:107EC00084E08EBB50DC8091E80083FF0AC0809183
:107ED000EB0080628093EB008091E800877F8093C5
:107EE000E8000F900F90CF91DF911F910F910895AF
:107EF00008951F938EB3882361F01091E9001092CA
:107F0000E9008091E80083FF01C0E4DE1770109360
:107F1000E9001F910895F999FECF92BD81BDF89AAD
:107F2000992780B50895262FF999FECF1FBA92BDE3
:107F300081BD20BD0FB6F894FA9AF99A0FBE01964A
:067F40000895F894FFCF44
:107F46004341544552494E41007700080000000065
:107F5600000008011201100102000008412341003F
:107F660001000201000109023E00020100803209FF
:107F7600040000010202010005240010010424028D
:107F8600040524060001070582030800FF09040111
:107F960000020A000000070504021000010705831D
:107FA6000210000104030904220341007200640068
:107FB600750069006E006F002000590075006E00A4
:107FC60020002000200020002000000018034100AF
:107FD60072006400750069006E006F0020004C009E
:067FE6004C004300000006
:040000030000700089
:00000001FF
