:100000000C94CC000C94F4000C94F4000C94F400C8
:100010000C94F4000C94F4000C94F4000C94F40090
:100020000C94F4000C94F4000C946C050C94DB0517
:100030000C94F4000C94F4000C94F4000C94F40070
:100040000C94F4000C94F4000C94F4000C94F40060
:100050000C94F4000C94F4000C94F4000C940D082F
:100060000C94F4000C94F4000C94F4000C94F40040
:100070000C94F4000C94F4000C94F4000C94F40030
:100080000C94F4000C94F4000C94F4000C94F40020
:100090000C94F4000C94F4000C94F4000C94F40010
:1000A0000C94F4000C94F4000C94F4000000000292
:1000B00000090F0000030401000C00000000000014
:1000C0000000000000000000000000080B00020219
:1000D00002010009040000010202000005240010D2
:1000E000010524010101042402060524060001077C
:1000F00005810310004009040100020A0000000706
:1001000005020240000007058302400000040309C5
:100110000412010002EF020140412341800001016D
:1001200002030141726475696E6F204C4C430041BB
:10013000726475696E6F2059756E000000000025AD
:100140000028002B002E00310000000000240027B2
:10015000002A002D003000040404040403040502F6
:100160000202020403020202020606060606060452
:10017000040202020404040802011040804010201E
:10018000408040800802040180402010020110805D
:10019000102040402000570811241FBECFEFDAE0A6
:1001A000DEBFCDBF11E0A0E0B1E0E4EFF2E102C0BC
:1001B00005900D92AA34B107D9F721E0AAE4B1E085
:1001C00001C01D92A13DB207E1F710E0CCECD0E0F8
:1001D00004C02197FE010E947209CB3CD107C9F7E8
:1001E0000E9489080C9478090C94000090E0FC01AE
:1001F000EA58FE4F2491895A9E4FFC01849188232E
:1002000099F090E0880F991FFC01E75BFE4FA591E4
:10021000B491FC01E55CFE4F859194918FB7F89401
:10022000EC91E22BEC938FBF0895FC018091680163
:10023000882311F13FB7F89482E08093E900209180
:10024000F200822F90E01816190614F481E090E075
:10025000882339F0289844E6409367014091F100E3
:100260004083222339F02091F200211103C02BE6B4
:100270002093E8003FBF08958FEF9FEF08952FB7B9
:10028000F89483E08093E9009091E800892F8072D0
:1002900095FF04C09091F20080E4891B2FBF089560
:1002A00080915F0181110DC082E080935B0184E049
:1002B00080935C0110925E0110925D0181E0809359
:1002C0005F018BE591E00895CF93DF931F92CDB747
:1002D000DEB76983DC01ED91FC910280F381E02DB2
:1002E00041E050E0BE016F5F7F4F09950F90DF91B5
:1002F000CF91089583E08093E9008091F2008823F4
:1003000019F08AE38093E80008950E943F0190E08D
:100310000895CF93DF931F92CDB7DEB7FC0184859C
:10032000958597FD08C02FEF3FEF358724870F9005
:10033000DF91CF910895CE0101960E94150101979A
:1003400019F4898190E0F3CF8FEF9FEFF0CF0F93F7
:100350001F93CF93DF931F92CDB7DEB78C01FC01C3
:100360008485958597FF0BC0CE0101960E941501EB
:10037000019771F4898190E0F80195878487F801ED
:10038000848595850F90DF91CF911F910F910895EE
:100390008FEF9FEFF1CFFC018485958597FD0BC012
:1003A0009FB7F89482E08093E9008091F2009FBFAC
:1003B00090E0019608959FB7F89482E08093E90059
:1003C0008091F2009FBF90E00895409155015091B7
:1003D0005601209153013091540142175307B4F450
:1003E0009091E8009570E1F39091E80092FD19C0BA
:1003F0008093F100809155019091560101968F7381
:100400009927892B19F48EEF8093E800809155018C
:10041000909156010196909356018093550181E089
:10042000089580E00895EF92FF920F931F93CF936A
:10043000DF93F82E192FE62E042F81E0860F880F08
:100440000E94E50183E00E94E501CF2DD12FEC0E43
:10045000FD2EF11CCE15DF05B9F007FF13C0FE011C
:1004600084910E94E501182F80E00E94E50181231C
:1004700021968111EFCFDF91CF911F910F91FF90C6
:10048000EF9008958881EDCF81E0F5CFDF92EF9274
:10049000FF920F931F93CF93DF93D82E8A01EB0126
:1004A0007B01E40EF51ECE15DF0559F0D7FE12C014
:1004B000FE0184910E94E50121968111F4CF0FEF96
:1004C0001FEFC801DF91CF911F910F91FF90EF9027
:1004D000DF9008958881EECF0F931F93CF93DF9322
:1004E0001F92CDB7DEB782E0898342E450E06BEC27
:1004F00070E080E80E9446020E945001DC011296E2
:100500000D911C910115110589F0D801ED91FC9117
:100510000280F381E02DBE016F5F7F4FC801099516
:1005200097FD04C0F80100851185ECCF89810F90FB
:10053000DF91CF911F910F910895615030F020917C
:10054000F100FC0120830196F8CF289884E680937F
:1005500067010895AF92BF92CF92DF92EF92FF9220
:100560000F931F93CF93DF936C017B018B01040FDB
:10057000151FEB015E01AE18BF08C017D10759F077
:100580006991D601ED91FC910190F081E02DC601B9
:100590000995892B79F7C501DF91CF911F910F91B3
:1005A000FF90EF90DF90CF90BF90AF900895282FED
:1005B00030E0F901E455FF4F9491F901EA58FE4FFC
:1005C0008491295A3E4FF9012491222309F430C025
:1005D0009923E9F091509F30D0F4E92FF0E0ED50ED
:1005E000FD4F0C94720921032503020319031D0317
:1005F00007030703070328032E03320336033C03D4
:1006000007034003909180009F7790938000E22F32
:10061000F0E0EE0FFF1FE55CFE4FA591B4919FB790
:10062000F894EC91611132C080958E238C939FBF1A
:100630000895909180009F7DE8CF90918000977FF2
:10064000E4CF94B59F7794BDE2CF94B59F7DFBCF67
:10065000909190009F7790939000D9CF90919000C7
:100660009F7DF9CF90919000977FF5CF9091C0003A
:100670009F779093C000CBCF9091C0009F7DF9CF22
:100680009091C200977F9093C200C1CF8E2BCECFA6
:100690003FB7F89480914F0190915001A091510182
:1006A000B091520126B5A89B05C02F3F19F00196C5
:1006B000A11DB11D3FBFBA2FA92F982F8827BC01BC
:1006C000CD01620F711D811D911D42E0660F771FE4
:1006D000881F991F4A95D1F708958F929F92AF92E4
:1006E000BF92CF92DF92EF92FF924B015C010E948A
:1006F00048036B017C010E9448036C197D098E0937
:100700009F09683E734081059105A8F321E0821A94
:100710009108A108B10888EEC80E83E0D81EE11C3C
:10072000F11C81149104A104B10429F7FF90EF900A
:10073000DF90CF90BF90AF909F908F9008958F9251
:100740009F92AF92BF92CF92DF92EF92FF920F9360
:100750001F93CF93DF936C017B018A0180910B0182
:10076000882309F45CC080916801882309F457C08C
:1007700080915A0180FF05C08091E00082608093E3
:10078000E000E801B12C8AEFA82E93E0892E2AE33D
:10079000922E209711F4BB20D9F10E943F018111C4
:1007A0000AC0AA94AA20D9F161E070E080E090E04C
:1007B0000E946D03EECF8C171D0611F00CF08C2FEC
:1007C0009FB7F8948092E9002091E80025FD02C0CF
:1007D0009FBFDFCF282F30E0C21BD30BF701815022
:1007E00020F041914093F100FACFE20EF31EBB20BE
:1007F00021F09092E800B12CEBCF8091E80085FDCC
:10080000E7CF9092E800BB24B394209709F3F3CF8D
:100810005D9884E680935901101611063CF081E042
:1008200090E0F6019383828310E000E0C801DF913D
:10083000CF911F910F91FF90EF90DF90CF90BF90DD
:10084000AF909F908F900895089590E080E0089574
:10085000CF93DF93EC0160E08E810E94D70261E0CC
:100860008E810E94D70260E08E810E94D7028BE8C1
:1008700091E00197F1F7DF91CF910895CF92DF9248
:10088000EF92FF920F931F93CF93DF936C017C0144
:1008900087E0E80EF11CD0E0C0E0062F10E0B801C0
:1008A0000C2E02C0759567950A94E2F76170F70106
:1008B00081917F010E94D7022196C430D10579F73A
:1008C000C601DF91CF911F910F91FF90EF90DF90C4
:1008D000CF900C942804CF92DF92EF92FF920F9367
:1008E0001F93CF93DF93EC01F62E642F8C810E942F
:1008F000D7028D818F3F19F060E00E94D7020F2D43
:1009000010E08F8584FF25C06E0187E0C80ED11CE2
:10091000F12CE12CB8010E2C02C0759567950A9454
:10092000E2F76170F60181916F010E94D702FFEF3B
:10093000EF1AFF0A88E0E816F10461F7CE01DF91B3
:10094000CF911F910F91FF90EF90DF90CF900C947B
:100950002804B80184E0759567958A95E1F7CE0182
:100960000E943E046F2DCE01DF91CF911F910F9118
:10097000FF90EF90DF90CF900C943E0440E0682F02
:1009800089EB91E00C946B04CF93DF93823029F4D0
:100990009091C80198609093C8018093CC01109207
:1009A000CD0180E48093CE0180E18093CF0180E58A
:1009B0008093D0018091BD010E94F6008091BE011C
:1009C0008F3F11F00E94F6008091BF010E94F60057
:1009D000C9EBD1E09E01295B31408091C80184FDC3
:1009E0000AC084E090E02196281739073CF48E81F4
:1009F0000E94F600EFCF88E090E0F5CF8BE39DE01A
:100A00000197F1F760E08091BD010E94D70260E09C
:100A10008091BF010E94D7028091BE018F3F19F0E3
:100A200060E00E94D7028091C80184FD39C063E074
:100A300089EB91E00E943E04CBE4D6E4CE0101971D
:100A4000F1F763E089EB91E00E943E042197F1F712
:100A500063E089EB91E00E943E0483E592E0019718
:100A6000F1F762E089EB91E00E943E048091C801B9
:100A700080620E94BE0484E08093C9018CE00E94E1
:100A8000BE0481E00E94BE048BE39FE10197F1F771
:100A900082E08093CA0186E0DF91CF910C94BE047E
:100AA00080620E94BE048BE496E40197F1F7809186
:100AB000C80180620E94BE0483E592E00197F1F7CD
:100AC0008091C80180620E94BE04D0CF41E00E94A4
:100AD0006B0481E090E008951F920F920FB60F9281
:100AE00011248F939F938091E1009091E100937F77
:100AF0009093E10083FF0FC01092E90091E0909382
:100B0000EB001092EC0092E39093ED0010926801DC
:100B100098E09093F00082FF22C093E09093E90068
:100B20009091F200992319F09AE39093E800909144
:100B30005901992341F09091590191509093590195
:100B4000911101C05D9A90916701992341F09091B4
:100B50006701915090936701911101C0289A84FF19
:100B600018C08091E2008E7E81608093E2008091C7
:100B7000E1008F7E8093E10080915A018E7E80613A
:100B800080935A019F918F910F900FBE0F901F90ED
:100B9000189580FFF7CF8091E2008E7E8061809370
:100BA000E2008091E1008E7E8093E10080915A0105
:100BB0008E7E8160E5CF1F920F920FB60F921124A7
:100BC000CF92DF92EF92FF920F931F932F933F9359
:100BD0004F935F936F937F938F939F93AF93BF9345
:100BE000EF93FF93CF93DF93CDB7DEB76C97DEBF64
:100BF000CDBF1092E9008091E80083FF25C068E036
:100C0000CE0145960E949D0282EF8093E8008D8977
:100C100087FF39C09091E80090FFFCCF982F907625
:100C200009F034C19E894F89588D2F89F88C911114
:100C300031C0803861F5809158018093F1001092A5
:100C4000F1008EEF8093E8006C960FB6F894DEBF4B
:100C50000FBECDBFDF91CF91FF91EF91BF91AF91CB
:100C60009F918F917F916F915F914F913F912F91C4
:100C70001F910F91FF90EF90DF90CF900F900FBEDC
:100C80000F901F9018959EEF9093E800C7CF109299
:100C9000F100D5CF913059F48111D3CF41305105B6
:100CA00081F6809158018D7F80935801CACF93308F
:100CB00049F48111C6CF4130510519F68091580190
:100CC0008260F2CF953041F48091E80080FFFCCF44
:100CD00020682093E300B5CF963009F0A9C00B8DB2
:100CE0001C8D22E01092E9001092560110925501DD
:100CF000F2122EC010925401109253010E946C0205
:100D00001F8299E09983FA8291E09E8390EA988706
:100D10009AEF99872091550130915601275F3F4FF7
:100D20003C832B838D831092E90010925601109220
:100D30005501109354010093530149E050E0BE0166
:100D40006F5F7F4F80E00E9446020E946C0279CF65
:100D500010935401009353010E945001DC0112963C
:100D60000D911C910115110509F451C1D801ED91A6
:100D7000FC910480F581E02DBE016B5E7F4FC801C0
:100D80000995009709F03EC1F80100851185EACF69
:100D9000F3E0FF120EC08F89882309F440C082302F
:100DA00061F440E86BE08FE291E00E941302811150
:100DB00048CF81E28093EB0047CF813029F440E8AF
:100DC0006BE083E291E0F1CF833099F70E9450010C
:100DD000DC011296ED90FC908E010F5F1F4F6801B1
:100DE000E114F10479F0D701ED91FC910680F781CF
:100DF000E02DB801C7010995080F111DF701E08426
:100E0000F184EECFD8011C92F60101900020E9F7A1
:100E10003197BF016C197D0940E0C601C6CF6DE076
:100E200071E0FB01449150E080E80E94460209CF46
:100E3000973009F4BECF983021F481E08093F1001F
:100E400000CF993009F0FDCE837009F0B2CFEDE00C
:100E5000F1E081E031E096E32191222371F080936B
:100E6000E9003093EB00DF0111972C912093EC0007
:100E70009093ED008F5F873079F78EE78093EA00DB
:100E80001092EA008F8980936801DBCE8B8D9C8D58
:100E90001092E9001092560110925501909354015E
:100EA00080935301898D811192C08E899D89913AD9
:100EB00049F4813209F07DCF47E050E064E071E011
:100EC00080E0B3CF913209F074CF833269F48F8917
:100ED000988DB0E0A0E08093000190930101A09371
:100EE0000201B0930301ADCE803269F48091E80035
:100EF00082FFFCCF67E084E091E00E949D028BEFCF
:100F00008093E8009ECE823209F09BCE8F89809339
:100F10000B01EEEFFFE7859194918B3F9C4D51F1D2
:100F2000E0E0F8E08091040190910501A0910601B4
:100F3000B0910701803B9440A105B105F1F4809187
:100F40000B0180FD1AC0EE3F8AE0F80789F587E7BC
:100F500097E791838083809160008093570188E1B7
:100F60009BE00FB6F894A895809360000FBE909315
:100F7000600067CEEEEFFAE0D5CF808191818737B0
:100F8000974709F05ECEA8958091600088618093B4
:100F900060008091570180936000EE3F2AE0F207E5
:100FA00089F08091FE0A9091FF0A9183808349CE57
:100FB000808191818737980751F29093FF0A80933F
:100FC000FE0AC5CF1092FF0A1092FE0A3ACE0E9486
:100FD0005001DC0112960D911C910115110509F4C7
:100FE000E8CED801ED91FC910190F081E02DBE0199
:100FF0006B5E7F4FC8010995811123CEF8010085F2
:101000001185EBCF181619060CF41BCED2CEF1E0E9
:10101000FF12BECE61E171E004CF1F920F920FB6B6
:101020000F9211242F933F938F939F93AF93BF936E
:1010300080914B0190914C01A0914D01B0914E01D6
:1010400030914A0123E0230F2D3758F50196A11D59
:10105000B11D20934A0180934B0190934C01A093C2
:101060004D01B0934E0180914F0190915001A0919C
:101070005101B09152010196A11DB11D80934F0104
:1010800090935001A0935101B0935201BF91AF9141
:101090009F918F913F912F910F900FBE0F901F90B6
:1010A000189526E8230F0296A11DB11DD2CFE9E6BF
:1010B000F1E01382128288EE93E0A0E0B0E0848336
:1010C0009583A683B78387E191E0918380838FEF37
:1010D0009FEF95878487E9EBF1E01382128289E222
:1010E00091E0918380838AE0848389E0858388E02E
:1010F000868385E0878384E0808783E0818782E040
:1011000082871386148615861686178681E00C94CE
:10111000C404789484B5826084BD84B5816084BD44
:1011200085B5826085BD85B5816085BD80916E0085
:10113000816080936E0010928100809181008260B6
:1011400080938100809181008160809381008091F3
:101150008000816080938000809191008260809304
:101160009100809191008160809391008091900026
:101170008160809390008091C10084608093C10061
:101180008091C10082608093C1008091C100816024
:101190008093C1008091C30081608093C3008091DF
:1011A000C00082608093C0008091C2008160809303
:1011B000C20080917A00846080937A0080917A00E6
:1011C000826080937A0080917A00816080937A00B7
:1011D00080917A00806880937A0010926801109262
:1011E000580110925A018091D70081608093D700F6
:1011F00080EA8093D80089B5806189BD89B5826015
:1012000089BD09B400FEFDCF61E070E080E090E0B0
:101210000E946D038091D8008F7C80618093D800FC
:101220008091E000807F8093E0008091E1008E7EDD
:101230008093E1008DE08093E200559A209A82E04D
:101240000E94C404E1E08091CC018111E0E0E195CD
:10125000F0E0E754FE4F848980680E94BE044EE0AF
:1012600050E061E371E089EB91E00E94AA02E09115
:10127000CC01E230A8F5E150F0E0E754FE4F84895C
:101280008D5F80680E94BE0449E050E060E471E038
:1012900089EB91E00E94AA02C0E0D0E08091C901F0
:1012A0008D7F8093C90188600E94BE0464EF71E065
:1012B00080E090E00E946D038091C901982F9260B8
:1012C0009093C9018A600E94BE0464EF71E080E0DF
:1012D00090E00E946D03209709F30E940000DECF8A
:1012E000E1E0CACFEE0FFF1F0590F491E02D0994C5
:0412F000F894FFCFA0
:1012F400FFFFFFFF00E100000000000000C180814B
:101304000000000000000064019F0385017A01CB06
:10131400018901A701000000006605AA0225042432
:10132400044374726C204174756D617469636F0059
:0A133400456475636163696F6E0024
:00000001FF
