:100000000C9462000C948A000C948A000C948A0070
:100010000C948A000C948A000C948A000C948A0038
:100020000C948A000C948A000C948A000C948A0028
:100030000C948A000C948A000C948A000C948A0018
:100040000C9456020C948A000C94C6020C94A002E4
:100050000C948A000C948A000C948A000C948A00F8
:100060000C948A000C948A000000000024002700F1
:100070002A0000000000250028002B0000000000DE
:1000800023002600290004040404040404040202DA
:100090000202020203030303030301020408102007
:1000A0004080010204081020010204081020000012
:1000B0000008000201000003040700000000000027
:1000C0000000400411241FBECFEFD8E0DEBFCDBF3B
:1000D00011E0A0E0B1E0E4EFF8E002C005900D927D
:1000E000A234B107D9F721E0A2E4B1E001C01D922A
:1000F000A83EB207E1F710E0C2E6D0E004C02197C5
:10010000FE010E946D04C136D107C9F70E94F802B2
:100110000C9478040C940000833081F028F4813032
:1001200099F08230A1F008958730A9F08830B9F0B5
:100130008430D1F4809180008F7D03C08091800055
:100140008F7780938000089584B58F7702C084B53F
:100150008F7D84BD08958091B0008F7703C080911A
:10016000B0008F7D8093B0000895CF93DF93282F48
:1001700030E0F901E255FF4F8491F901E656FF4F57
:10018000D491F901EA57FF4FC491CC2391F081112A
:100190000E948C00EC2FF0E0EE0FFF1FE458FF4FA1
:1001A000A591B491EC91ED2381E090E021F480E001
:1001B00002C080E090E0DF91CF9108951F93CF932C
:1001C000DF93282F30E0F901E255FF4F8491F901C8
:1001D000E656FF4FD491F901EA57FF4FC491CC2363
:1001E000C1F0162F81110E948C00EC2FF0E0EE0F71
:1001F000FF1FEE58FF4FA591B4919FB7F8941111CE
:1002000004C08C91D095D82302C0EC91DE2BDC93F6
:100210009FBFDF91CF911F9108953FB7F8948091D0
:10022000470190914801A0914901B0914A0126B53A
:10023000A89B05C02F3F19F00196A11DB11D3FBF1E
:10024000BA2FA92F982F8827820F911DA11DB11DAC
:10025000BC01CD0142E0660F771F881F991F4A95A8
:10026000D1F70895CF92DF92EF92FF920F931F93F1
:10027000CF93DF936C017A018B01C0E0D0E0CE1503
:10028000DF0581F0D8016D918D01D601ED91FC91D2
:100290000190F081E02DC6010995892B11F021967E
:1002A000EECF7E01C701DF91CF911F910F91FF909B
:1002B000EF90DF90CF900895089580E090E008954A
:1002C000FC01538D448D252F30E0842F90E0821B5C
:1002D000930B541710F0CF96089501970895FC01E1
:1002E000918D828D981761F0828DDF01A80FB11D6D
:1002F0005D968C91928D9F5F9F73928F90E0089591
:100300008FEF9FEF0895FC01918D828D981731F04A
:10031000828DE80FF11D858D90E008958FEF9FEF9E
:100320000895FC01918D228D892F90E0805C9F4F74
:10033000821B91098F73992708958BE491E00E94A5
:10034000910121E0892B09F420E0822F0895FC011E
:10035000848DDF01A80FB11DA35ABF4F2C91848D4E
:1003600090E001968F739927848FA689B7892C9383
:10037000A089B1898C91837080648C93938D848DD6
:10038000981306C00288F389E02D80818F7D8083D9
:100390000895EF92FF920F931F93CF93DF93EC0199
:1003A00081E0888F9B8D8C8D981305C0E889F98931
:1003B000808185FD26C0F62E0B8D10E00F5F1F4F4C
:1003C0000F731127E02E8C8DE8120CC00FB607FCBE
:1003D000FACFE889F989808185FFF5CFCE010E94A7
:1003E000A701F1CF8B8DFE01E80FF11DE35AFF4FFE
:1003F000F0829FB7F8940B8FEA89FB898081806235
:100400000AC09FB7F894EE89FF896083E889F9896B
:1004100080818370806480839FBF81E090E0DF9162
:10042000CF911F910F91FF90EF900895CF93DF939D
:10043000EC01888D8823C9F0EA89FB89808185FDDC
:1004400005C0A889B9898C9186FD0FC00FB607FC3D
:10045000F5CF808185FFF2CFA889B9898C9185FF7E
:10046000EDCFCE010E94A701E7CFDF91CF91089594
:1004700080E090E0892B29F00E949D0181110C946D
:1004800000000895009769F0FC0101900020E9F751
:100490003197AF01481B590BBC018BE491E00C94E0
:1004A000320180E090E008950E9473041F920F9241
:1004B0000FB60F9211242F933F938F939F93AF9377
:1004C000BF938091430190914401A0914501B09167
:1004D00046013091420123E0230F2D3720F401968D
:1004E000A11DB11D05C026E8230F0296A11DB11D57
:1004F000209342018093430190934401A0934501CE
:10050000B09346018091470190914801A091490123
:10051000B0914A010196A11DB11D809347019093AE
:100520004801A0934901B0934A01BF91AF919F91B7
:100530008F913F912F910F900FBE0F901F901895A4
:100540001F920F920FB60F9211242F933F934F9348
:100550005F936F937F938F939F93AF93BF93EF932B
:10056000FF938BE491E00E94A701FF91EF91BF916F
:10057000AF919F918F917F916F915F914F913F913B
:100580002F910F900FBE0F901F9018951F920F92F2
:100590000FB60F9211242F938F939F93EF93FF9396
:1005A000E0915B01F0915C018081E0916101F0914B
:1005B000620182FD12C09081809164018F5F8F7310
:1005C00020916501821751F0E0916401F0E0E55B54
:1005D000FE4F958F8093640101C08081FF91EF9160
:1005E0009F918F912F910F900FBE0F901F90189594
:1005F000789484B5826084BD84B5816084BD85B5FE
:10060000826085BD85B5816085BD80916E00816009
:1006100080936E00109281008091810082608093AF
:1006200081008091810081608093810080918000B1
:100630008160809380008091B10084608093B100DC
:100640008091B00081608093B00080917A008460D6
:1006500080937A0080917A00826080937A00809102
:100660007A00816080937A0080917A00806880931C
:100670007A001092C10002E211E0C6E2D1E0899155
:1006800090E0FC01E656FF4F2491FC01EA57FF4F32
:100690008491882399F090E0880F991FFC01E85914
:1006A000FF4FA591B491FC01EE58FF4F85919491B5
:1006B0008FB7F894EC91E22BEC938FBF61E0F801D7
:1006C00081918F010E94DE00F1E0CA32DF07B9F6A6
:1006D000A2E2B1E08D9190E0FC01E656FF4F24913B
:1006E000FC01EA57FF4F84918823C9F090E0880FFE
:1006F000991FFC01E859FF4F45915491FC01EE58B8
:10070000FF4FC591D4919FB7F894FA018081322FA1
:10071000309583238083E8812E2B28839FBFF1E0CF
:10072000A632BF07B9F6E0915B01F0915C0182E06F
:100730008083E0915701F09158011082E0915901B6
:10074000F0915A018FEC808310926301E0915F0178
:10075000F091600186E08083E0915D01F0915E019F
:10076000808180618083E0915D01F0915E018081F4
:1007700088608083E0915D01F0915E0180818068F6
:100780008083E0915D01F0915E0180818F7D8083A7
:100790008AE291E00E94420286E391E00E944202D6
:1007A00086E391E00E94420232E2A32E31E0B32EB2
:1007B000C2E1D1E026E2C22E21E0D22EF601F19074
:1007C0006F0160E08F2D0E94DE0092E2692E91E0C1
:1007D000792E00E010E0F301E1903F018E2D0E94A0
:1007E000B500892B31F00F5F1F4F0430110599F7C9
:1007F00016C089E391E00E944202FE01E00FF11F62
:1008000060818BE491E00E94C90186E391E00E943F
:1008100042028E2D0E94B500892BD9F3E4CF61E00E
:100820008F2D0E94DE002496AC16BD0639F60E947C
:100830000D012B013C018AE0C82ED12CE12CF12CBA
:100840000E940D01DC01CB0184199509A609B709A5
:10085000883E9340A105B10598F3F1E0CF1AD10885
:10086000E108F10828EE420E23E0521E611C711CC3
:10087000C114D104E104F10419F70E94380298CFA1
:10088000EBE4F1E01382128288EE93E0A0E0B0E0A6
:1008900084839583A683B78384E091E091838083EA
:1008A00085EC90E09587848784EC90E09787868735
:1008B00080EC90E0918B808B81EC90E0938B828B2D
:1008C00082EC90E0958B848B86EC90E0978B868B06
:1008D000118E128E138E148E0895EE0FFF1F059049
:1008E000F491E02D099481E090E0F8940C94780460
:0408F000F894FFCFAA
:1008F40000000000C90132016001160291016F017C
:1009040083013132334134353642373839432A3062
:10091400234405040302090807065465636C6164F3
:100924006F20347834000D0A005465636C613A20FA
:020934000000C1
:00000001FF
