:100000000C9461000C947E000C947E000C947E0095
:100010000C947E000C947E000C947E000C947E0068
:100020000C947E000C947E000C947E000C947E0058
:100030000C947E000C947E000C947E000C947E0048
:100040000C9468010C947E000C947E000C947E004D
:100050000C947E000C947E000C947E000C947E0028
:100060000C947E000C947E00000000002400270009
:100070002A000000000023002600290000000000E4
:10008000250028002B0004040404040404040202D4
:100090000202020203030303030301020408102007
:1000A0004080010204081020010204081020000012
:1000B0000008000201000003040700000000000027
:1000C000000011241FBECFEFD8E0DEBFCDBF11E08E
:1000D000A0E0B1E0E0E2F5E002C005900D92A431AD
:1000E000B107D9F721E0A4E1B1E001C01D92AF3121
:1000F000B207E1F70E94B2010C948E020C9400004A
:10010000833081F028F4813099F08230A9F008958D
:100110008730A9F08830C9F08430B1F48091800034
:100120008F7D03C0809180008F7780938000089539
:1001300084B58F7784BD089584B58F7DFBCF809182
:10014000B0008F778093B00008958091B0008F7DCC
:10015000F9CFCF93DF93282F30E0F901E255FF4F1D
:100160008491F901E656FF4FD491F901EA57FF4F08
:10017000C491CC23A1F081110E948000EC2FF0E00B
:10018000EE0FFF1FEE58FF4FA591B491EC91ED23B8
:1001900081E090E009F480E0DF91CF91089580E064
:1001A00090E0FACFCF93DF9390E0FC01E656FF4F4B
:1001B00024918A579F4FFC0184918823C9F090E0D5
:1001C000880F991FFC01E859FF4FA591B491FC01DC
:1001D000E458FF4FC591D49161110DC09FB7F894B9
:1001E0008C91209582238C938881282328839FBF1C
:1001F000DF91CF910895623051F49FB7F8943C910C
:10020000822F809583238C93E8812E2BEFCF8FB79D
:10021000F894EC912E2B2C938FBFEACF3FB7F89434
:100220008091190190911A01A0911B01B0911C01BC
:1002300026B5A89B05C02F3F19F00196A11DB11D41
:100240003FBFBA2FA92F982F8827BC01CD01620F7D
:10025000711D811D911D42E0660F771F881F991F38
:100260004A95D1F708958F929F92AF92BF92CF9205
:10027000DF92EF92FF920E940E014B015C0184E637
:10028000C82ED12CE12CF12C0E940E01681979099D
:100290008A099B09683E734081059105A8F321E016
:1002A000C21AD108E108F10888EE880E83E0981E92
:1002B000A11CB11CC114D104E104F10429F7FF9081
:1002C000EF90DF90CF90BF90AF909F908F90089568
:1002D0001F920F920FB60F9211242F933F938F937B
:1002E0009F93AF93BF938091150190911601A091B8
:1002F0001701B09118013091140123E0230F2D371D
:1003000058F50196A11DB11D20931401809315018C
:1003100090931601A0931701B093180180911901D1
:1003200090911A01A0911B01B0911C010196A11D91
:10033000B11D8093190190931A01A0931B01B093F2
:100340001C01BF91AF919F918F913F912F910F9081
:100350000FBE0F901F90189526E8230F0296A11D3F
:10036000B11DD2CF789484B5826084BD84B581609C
:1003700084BD85B5826085BD85B5816085BD809170
:100380006E00816080936E001092810080918100E8
:1003900082608093810080918100816080938100E0
:1003A000809180008160809380008091B1008460A2
:1003B0008093B1008091B00081608093B000809103
:1003C0007A00846080937A0080917A0082608093C2
:1003D0007A0080917A00816080937A0080917A001F
:1003E000806880937A001092C100C2E061E08C2F97
:1003F0000E94D200CF5FC930C9F760E089E00E9457
:10040000D20062E08AE00E94D20000E010E029E021
:10041000E22EF12C89E00E94A900892B91F00E9424
:10042000330189E00E94A900892BD9F70E9433018A
:1004300080911D0190911E01019690931E01809361
:100440001D018AE00E94A900892B91F40E943301CA
:100450008AE00E94A900892BD9F30E943301809180
:100460001D0190911E01019790931E0180931D0123
:1004700080911D0190911E010A9724F010921E0197
:1004800010921D0180911D0190911E0197FF04C0E3
:10049000F0921E01E0921D01E0911D01F0911E01FC
:1004A000EE0FFF1FE050FF4FC080D180D0E0C0E0D2
:1004B000FE01E055FF4F8491FE01E456FF4FB490DA
:1004C000FE01E857FF4FA490AA20D9F081110E94A5
:1004D0008000EA2DF0E0EE0FFF1FE458FF4FA591DA
:1004E000B4918FB7F89496010C2E02C035952795DC
:1004F0000A94E2F7EC9120FD0FC0B094BE22BC92AA
:100500008FBF2196C730D10599F60115110509F461
:1005100081CF0E9400007ECFBE2AF1CFF894FFCF9A
:100520003F0006005B004F0066006D007D00070085
:040530007F006700E1
:00000001FF
