:100000000C945D000C9485000C9485000C94850084
:100010000C9485000C9485000C9485000C9485004C
:100020000C9485000C9485000C9485000C9485003C
:100030000C9485000C9485000C9485000C9485002C
:100040000C94EC020C9485000C9485000C948500B3
:100050000C9485000C9485000C9485000C9485000C
:100060000C9485000C94850000000008000201003B
:100070000003040700000000000000000000000072
:10008000250028002B0000000000240027002A0083
:10009000040404040404040402020202020203032E
:1000A0000303030301020408102040800102040836
:1000B00010200102040810209D0411241FBECFEF60
:1000C000D8E0DEBFCDBF11E0A0E0B1E0E2E4FEE0A9
:1000D00002C005900D92A233B107D9F721E0A2E347
:1000E000B1E001C01D92A735B207E1F710E0CDE500
:1000F000D0E004C02197FE010E941907CC35D1073A
:10010000C9F70E9436030C941F070C94000090E07E
:10011000FC01EC55FF4F249180579F4FFC018491C7
:10012000882399F090E0880F991FFC01EA57FF4F50
:10013000A591B491FC01E458FF4F859194918FB73C
:10014000F894EC91E22BEC938FBF0895AF92BF929D
:10015000CF92DF92EF92FF920F931F93CF93DF9393
:100160006C017B018B01040F151FEB015E01AE18C2
:10017000BF08C017D10759F06991D601ED91FC91E4
:100180000190F081E02DC6010995892B79F7C50111
:10019000DF91CF911F910F91FF90EF90DF90CF9063
:1001A000BF90AF90089590E0FC01E859FF4F249173
:1001B000FC01EC55FF4F3491FC01E057FF4FE491F7
:1001C000EE23C9F0222339F0233001F1A8F42130C5
:1001D00019F1223029F1F0E0EE0FFF1FE458FF4F34
:1001E000A591B4918FB7F894EC91611126C0309528
:1001F0003E233C938FBF08952730A9F02830C9F0E3
:10020000243049F7809180008F7D03C08091800069
:100210008F7780938000DFCF84B58F7784BDDBCF6D
:1002200084B58F7DFBCF8091B0008F778093B00035
:10023000D2CF8091B0008F7DF9CF3E2BDACF3FB780
:10024000F8948091370190913801A0913901B091D3
:100250003A0126B5A89B05C02F3F19F00196A11DB4
:10026000B11D3FBFBA2FA92F982F8827BC01CD0100
:10027000620F711D811D911D42E0660F771F881F5F
:10028000991F4A95D1F70895089590E080E0089568
:10029000FC0101900020E9F73197AF01481B590B91
:1002A000BC018FE391E00C94A6008F929F92AF92D5
:1002B000BF920F931F93CF93DF93CDB7DEB7A19774
:1002C0000FB6F894DEBF0FBECDBF19A2423008F4BE
:1002D0004AE08E010F5D1F4F842E912CB12CA12C72
:1002E000A50194010E94F706E62FB901CA01EA3080
:1002F000F4F4E05DD801EE938D01232B242B252B04
:1003000079F790E080E0109719F0CD010E94480144
:10031000A1960FB6F894DEBF0FBECDBFDF91CF918F
:100320001F910F91BF90AF909F908F900895E95CBF
:10033000E1CFCF93DF93EC0160E08E810E94D30088
:1003400061E08E810E94D30060E08E810E94D30024
:100350008BE891E00197F1F7DF91CF910895CF926B
:10036000DF92EF92FF920F931F93CF93DF936C0175
:100370007C0187E0E80EF11CD0E0C0E0062F10E021
:10038000B8010C2E02C0759567950A94E2F761706A
:10039000F70181917F010E94D3002196C430D105DD
:1003A00079F7C601DF91CF911F910F91FF90EF90E8
:1003B000DF90CF900C949901CF92DF92EF92FF9251
:1003C0000F931F93CF93DF93EC01F62E642F8C8154
:1003D0000E94D3008D818F3F19F060E00E94D3000E
:1003E0000F2D10E08F8584FF25C06E0187E0C80EB9
:1003F000D11CF12CE12CB8010E2C02C0759567952B
:100400000A94E2F76170F60181916F010E94D300B6
:10041000FFEFEF1AFF0A88E0E816F10461F7CE015A
:10042000DF91CF911F910F91FF90EF90DF90CF90D0
:100430000C949901B80184E0759567958A95E1F768
:10044000CE010E94AF016F2DCE01DF91CF911F91A0
:100450000F91FF90EF90DF90CF900C94AF0140E0B0
:10046000682F8FE391E00C94DC01CF93DF9382300F
:1004700029F490914E01986090934E01809352011F
:100480001092530180E48093540180E180935501E0
:1004900080E580935601809143010E9487008091FE
:1004A00044018F3F11F00E948700809145010E9416
:1004B0008700CFE3D1E09E012F53314080914E0160
:1004C00084FD0AC084E090E02196281739073CF4A7
:1004D0008E810E948700EFCF88E090E0F5CF8BE31C
:1004E0009DE00197F1F760E0809143010E94D30005
:1004F00060E0809145010E94D300809144018F3FCC
:1005000019F060E00E94D30080914E0184FD39C053
:1005100063E08FE391E00E94AF01CBE4D6E4CE012B
:100520000197F1F763E08FE391E00E94AF0121971B
:10053000F1F763E08FE391E00E94AF0183E592E081
:100540000197F1F762E08FE391E00E94AF018091A3
:100550004E0180620E942F0284E080934F018CE064
:100560000E942F0281E00E942F028BE39FE10197FE
:10057000F1F782E08093500186E0DF91CF910C94F7
:100580002F0280620E942F028BE496E40197F1F71C
:1005900080914E0180620E942F0283E592E00197D4
:1005A000F1F780914E0180620E942F02D0CFE0913E
:1005B0005201E23048F4E150F0E0E15CFE4F9489F2
:1005C000890F80680C942F02E1E0F6CF41E00E9491
:1005D000DC0181E090E008951F920F920FB60F9218
:1005E00011242F933F938F939F93AF93BF93809149
:1005F000330190913401A0913501B09136013091D1
:10060000320123E0230F2D3758F50196A11DB11DAE
:10061000209332018093330190933401A0933501EC
:10062000B09336018091370190913801A091390142
:10063000B0913A010196A11DB11D809337019093AD
:100640003801A0933901B0933A01BF91AF919F91C6
:100650008F913F912F910F900FBE0F901F90189583
:1006600026E8230F0296A11DB11DD2CF789484B540
:10067000826084BD84B5816084BD85B5826085BD9E
:1006800085B5816085BD80916E00816080936E002C
:10069000109281008091810082608093810080911E
:1006A00081008160809381008091800081608093CF
:1006B00080008091B10084608093B1008091B0008F
:1006C00081608093B00080917A00846080937A008A
:1006D00080917A00826080937A0080917A008160B4
:1006E00080937A0080917A00806880937A001092DB
:1006F000C10082E00E94350282E00E942F028BE35B
:100700009FE10197F1F78CE091E00E94480180E0C1
:100710000E94D70288E191E00E94480110E4C0E005
:10072000D0E010937C0080917A00806480937A00FE
:1007300080917A0086FDFCCF8091780060917900ED
:10074000762F682F072E000C880B990B0E94D0057E
:1007500020E030E040EA50E40E94850620E030ECE2
:100760004FE754E40E942D052AE037ED43E25CE3B5
:100770000E942D056B017C014B015C01C0923B0185
:10078000D0923C01E0923D01F0923E0187E00E9450
:10079000D702A7019601C701B6010E94F20688237D
:1007A000B1F18FE191E00E9448018EE00E94D702F2
:1007B0008BE291E00E9448010E941F016B017C01C5
:1007C00088EE882E83E0982EA12CB12C0E941F0168
:1007D0006C197D098E099F09683E7340810591055A
:1007E000A8F321E0821A9108A108B10888EEC80E8A
:1007F00083E0D81EE11CF11C81149104A104B10412
:1008000029F7209709F48DCF0E9400008ACF260196
:100810003701E89477F82FEF3FEF4FE75FE7C30129
:10082000B2010E94F20681110DC02FEF3FEF4FE79A
:100830005FE7C301B2010E94280518161CF483E289
:1008400091E0B1CF2FEF3FEF4FE75FE4C701B60173
:100850000E94800618161CF487E291E0A4CF2FEFC7
:100860003FEF4FE75FECC701B6010E94280587FD07
:10087000F3CF20E030E0A901C701B6010E942805AE
:1008800087FF0CC041E06DE28FE391E00E94DC0144
:1008900046015701B7FAB094B7F8B0942AE037EDA3
:1008A00043EA5BE3C501B4010E94BC044B015C0157
:1008B0000E949F056B017C010E94CE059B01AC014B
:1008C000C501B4010E94BB044B015C014AE0C701B1
:1008D000B6010E94550141E06EE28FE391E00E9473
:1008E000DC0120E030E040E251E4C501B4010E94A7
:1008F00085064B015C010E949F056B01F12CE12CE8
:100900004AE0C701B6010E945501C701B6010E9425
:10091000CE059B01AC01C501B4010E94BB0420E0DF
:1009200030E040E251E40E9485060E949F0590E07D
:1009300080E04AE00E94550138CFEFE3F1E01382F6
:10094000128284E091E0918380838AE084838FEF38
:10095000858388E0868385E0878384E0808783E0E1
:10096000818782E08287138614861586168617860D
:1009700081E00C9435025058BB27AA270E94D3046B
:100980000C9446060E94380638F00E943F0620F07C
:1009900039F49F3F19F426F40C9435060EF4E095D3
:1009A000E7FB0C942F06E92F0E94570658F3BA175D
:1009B000620773078407950720F079F4A6F50C9475
:1009C00079060EF4E0950B2EBA2FA02D0B01B9017C
:1009D00090010C01CA01A0011124FF27591B99F0B5
:1009E000593F50F4503E68F11A16F040A22F232FC1
:1009F000342F4427585FF3CF469537952795A79511
:100A0000F0405395C9F77EF41F16BA0B620B730BB7
:100A1000840BBAF09150A1F0FF0FBB1F661F771F28
:100A2000881FC2F70EC0BA0F621F731F841F48F4DD
:100A3000879577956795B795F7959E3F08F0B0CF66
:100A40009395880F08F09927EE0F9795879508954D
:100A50000E940B0608F481E008950E9441050C9461
:100A600046060E943F0658F00E94380640F029F4DE
:100A70005F3F29F00C942F0651110C947A060C94C8
:100A800035060E94570668F39923B1F3552391F375
:100A9000951B550BBB27AA2762177307840738F0ED
:100AA0009F5F5F4F220F331F441FAA1FA9F335D04A
:100AB0000E2E3AF0E0E832D091505040E695001CFE
:100AC000CAF72BD0FE2F29D0660F771F881FBB1FB8
:100AD000261737074807AB07B0E809F0BB0B802D96
:100AE000BF01FF2793585F4F3AF09E3F510578F0C2
:100AF0000C942F060C947A065F3FE4F3983ED4F3EF
:100B0000869577956795B795F7959F5FC9F7880F95
:100B1000911D9695879597F90895E1E0660F771FE7
:100B2000881FBB1F621773078407BA0720F0621B78
:100B3000730B840BBA0BEE1F88F7E09508950E94A3
:100B40005F0688F09F5798F0B92F9927B751B0F0FA
:100B5000E1F0660F771F881F991F1AF0BA95C9F741
:100B600014C0B13091F00E947906B1E008950C9460
:100B70007906672F782F8827B85F39F0B93FCCF313
:100B8000869577956795B395D9F73EF490958095BE
:100B9000709561957F4F8F4F9F4F0895E89409C0DE
:100BA00097FB3EF490958095709561957F4F8F4FA0
:100BB0009F4F9923A9F0F92F96E9BB279395F695B6
:100BC000879577956795B795F111F8CFFAF4BB0F34
:100BD00011F460FF1BC06F5F7F4F8F4F9F4F16C098
:100BE000882311F096E911C0772321F09EE8872F22
:100BF000762F05C0662371F096E8862F70E060E0DE
:100C00002AF09A95660F771F881FDAF7880F969556
:100C1000879597F90895990F0008550FAA0BE0E8FA
:100C2000FEEF16161706E807F907C0F012161306AE
:100C3000E407F50798F0621B730B840B950B39F4EE
:100C40000A2661F0232B242B252B21F408950A2654
:100C500009F4A140A6958FEF811D811D089597F994
:100C60009F6780E870E060E008959FEF80EC089552
:100C700000240A941616170618060906089500247B
:100C80000A9412161306140605060895092E0394F5
:100C9000000C11F4882352F0BB0F40F4BF2B11F469
:100CA00060FF04C06F5F7F4F8F4F9F4F089557FDC8
:100CB0009058440F551F59F05F3F71F04795880FCA
:100CC00097FB991F61F09F3F79F087950895121661
:100CD00013061406551FF2CF4695F1DF08C016160D
:100CE00017061806991FF1CF8695710561050894BE
:100CF0000895E894BB2766277727CB0197F90895D5
:100D00000E940B0608F48FEF08950E9498060C9439
:100D100046060E94380638F00E943F0620F09523D0
:100D200011F00C942F060C94350611240C947A06BD
:100D30000E94570670F3959FC1F3950F50E0551F21
:100D4000629FF001729FBB27F00DB11D639FAA2720
:100D5000F00DB11DAA1F649F6627B00DA11D661F6F
:100D6000829F2227B00DA11D621F739FB00DA11D90
:100D7000621F839FA00D611D221F749F3327A00D4A
:100D8000611D231F849F600D211D822F762F6A2FE6
:100D900011249F5750409AF0F1F088234AF0EE0F4B
:100DA000FF1FBB1F661F771F881F91505040A9F778
:100DB0009E3F510580F00C942F060C947A065F3FFD
:100DC000E4F3983ED4F3869577956795B795F795B4
:100DD000E7959F5FC1F7FE2B880F911D969587952C
:100DE00097F908950E940B06880B990B0895A1E2CC
:100DF0001A2EAA1BBB1BFD010DC0AA1FBB1FEE1F95
:100E0000FF1FA217B307E407F50720F0A21BB30BDF
:100E1000E40BF50B661F771F881F991F1A9469F75B
:100E200060957095809590959B01AC01BD01CF01B7
:100E30000895EE0FFF1F0590F491E02D0994F894AA
:020E4000FFCFE2
:100E420000000000E602A60045014401414443209F
:100E520041726475696E6F0054656D703A20006E60
:100E6200616E00696E66006F766600432020202066
:020E720000007E
:00000001FF
