:100000000C9458000C9480000C9480000C94800098
:100010000C9480000C9480000C9480000C94800060
:100020000C9480000C9480000C9480000C94800050
:100030000C9480000C9480000C9480000C94800040
:100040000C94D7020C9480000C9480000C948000D7
:100050000C9480000C9480000C9480000C94800020
:100060000C9421030C94800000000000250028005F
:100070002B00040404040404040402020202020229
:10008000030303030303010204081020408001025C
:1000900004081020010204081020000000080002DB
:1000A00001000003040700000000000000004004FD
:1000B00011241FBECFEFD8E0DEBFCDBF11E0A0E01E
:1000C000B1E0E0EFFAE002C005900D92AE35B10765
:1000D000D9F722E0AEE5B1E001C01D92A333B2072B
:1000E000E1F710E0C8E5D0E004C02197FE010E94CE
:1000F0007005C735D107C9F70E9460040C947605D6
:100100000C94000090E0FC01E656FF4F2491FC01A6
:10011000EA57FF4F3491FC01EE58FF4FE491EE2374
:10012000B1F0222339F02330E9F090F4213001F1CD
:10013000223011F1F0E0EE0FFF1FE859FF4FA591BB
:10014000B4918FB7F894EC913E2B3C938FBF0895F8
:100150002730A9F02830C9F0243061F78091800061
:100160008F7D03C0809180008F7780938000E2CFE5
:1001700084B58F7784BDDECF84B58F7DFBCF809132
:10018000B0008F778093B000D5CF8091B0008F7D85
:10019000F9CF08950895AF92BF92CF92DF92EF9278
:1001A000FF920F931F93CF93DF936C017B018B0121
:1001B000040F151FEB015E01AE18BF08C017D10771
:1001C00059F06991D601ED91FC910190F081E02DFB
:1001D000C6010995892B79F7C501DF91CF911F9150
:1001E0000F91FF90EF90DF90CF90BF90AF90089568
:1001F0003FB7F89480910C0290910D02A0910E02ED
:10020000B0910F0226B5A89B05C02F3F19F00196AB
:10021000A11DB11D3FBFBA2FA92F982F8827BC0160
:10022000CD01620F711D811D911D42E0660F771F88
:10023000881F991F4A95D1F708958F929F92AF9288
:10024000BF92CF92DF92EF92FF924B015C010E942E
:10025000F8006B017C010E94F8006C197D098E0981
:100260009F09683E734081059105A8F321E0821A39
:100270009108A108B10888EEC80E83E0D81EE11CE1
:10028000F11C81149104A104B10429F7FF90EF90AF
:10029000DF90CF90BF90AF909F908F90089508957A
:1002A00085ED8093BC008091BC0084FDFCCF109252
:1002B0001602089520919E01260F3327331F213205
:1002C0003105ECF420911602FC0190E080E024302E
:1002D00069F082E00895A0919E012191AC014258FD
:1002E0005E4FA40FB52FB11D2C930196861798F37E
:1002F00080919E01680F60939E0180E0089581E0E7
:1003000008950895E0911A0280911902E81730F4D7
:10031000F0E0E25AFE4F808190E008958FEF9FEF6A
:10032000089590911A02809119022FEF3FEF9817CC
:1003300048F4E92FF0E0E25AFE4F208130E09F5F61
:1003400090931A02C90108958091190290911A029E
:10035000891B990B0895CF92DF92EF92FF920F9332
:100360001F93CF93DF937C01CB018A012091E5019C
:10037000222389F0EB016B01C40ED51ECC15DD05DF
:1003800069F06991D701ED91FC910190F081E02D28
:10039000C7010995F3CF642F0E945A01C801DF916C
:1003A000CF911F910F91FF90EF90DF90CF90089524
:1003B000CF93DF931F92CDB7DEB769832091E5011C
:1003C0002223F9F020911702203258F021E030E08A
:1003D000FC013383228390E080E00F90DF91CF9186
:1003E000089580911802E82FF0E0EA51FE4F9981BC
:1003F00090838F5F809318028093170281E090E0D2
:10040000ECCF61E0CE0101960E945A01F7CFCF9365
:10041000FC01C48121E02093E501C0930602109203
:100420001802109217028385682B8BE192E00E94DC
:10043000D80190911702913208F03FC080911602C6
:100440008111FCCF82E08093160281E08093150237
:100450008FEF8093E4011092E3019093E201A6EE06
:10046000B1E0E2ECF1E080E098132FC01092C101FE
:100470008091C101CC0FC82BC093C101809114029F
:10048000813039F5109214028091C1018093BB0034
:100490008091BC0083FDF8CF85EC8093BC008091F7
:1004A00016028230E1F38091E4018F3F31F08091B8
:1004B000E401803211F08091E40110921802109250
:1004C00017021092E501CF9108952D9121938F5F2E
:1004D000CBCF85EEE2CF90E080E008950F931F939D
:1004E000CF938C01C62F0E9407026C2F6460C80155
:1004F0000E9407026C2F6B7FC8010E94070283ECE9
:1005000090E00197F1F7CF911F910F9108950F930C
:100510001F93CF93DF938C01D62FC42F607F642B62
:100520000E946E0280E1D89FB00111246C2BC8019B
:10053000DF91CF911F910F910C946E02CF93DF93B7
:10054000CDB7DEB728970FB6F894DEBF0FBECDBF8C
:1005500098E0E0E0F1E0DE01119601900D929A95AD
:10056000E1F790912F02961708F46FEF262F30E0F5
:10057000220F331F41E050E04C0F5D1F240F351F49
:10058000F9016081680F606840E087E292E0289698
:100590000FB6F894DEBF0FBECDBFDF91CF910C94A4
:1005A000870241E00E94870281E090E008951F9257
:1005B0000F920FB60F9211242F933F938F939F9317
:1005C000AF93BF938091080290910902A0910A0213
:1005D000B0910B023091070223E0230F2D3758F51D
:1005E0000196A11DB11D20930702809308029093EC
:1005F0000902A0930A02B0930B0280910C02909121
:100600000D02A0910E02B0910F020196A11DB11D25
:1006100080930C0290930D02A0930E02B0930F02F0
:10062000BF91AF919F918F913F912F910F900FBEEE
:100630000F901F90189526E8230F0296A11DB11D5B
:10064000D2CF1F920F920FB60F9211242F933F9388
:100650004F935F936F937F938F939F93AF93BF93CA
:10066000EF93FF938091B900887F803609F44AC0E8
:10067000F0F5883209F4A7C018F5803109F49BC061
:10068000B8F4882309F4F9C0883009F494C0FF91C4
:10069000EF91BF91AF919F918F917F916F915F91FA
:1006A0004F913F912F910F900FBE0F901F90189573
:1006B000883109F488C0803251F78093E40114C076
:1006C000803409F49DC040F48033B9F38833F9F6DF
:1006D0008093E40185ECB0C0803509F485C088358D
:1006E00009F496C0883499F60E945001D0CF883919
:1006F00009F48CC038F5883729F050F4883611F0A9
:10070000803729F683E0809316021092C00157C00B
:10071000883809F47BC0803919F0803809F0B7CFE8
:100720008091C001803208F071C0E091C00181E089
:100730008E0F8093C0018091BB00F0E0E056FE4F29
:1007400080833DC0803B39F0E0F4803A09F479C001
:10075000883A09F09CCF84E08093160210929F01A2
:1007600010929E01E0911202F0911302099580917E
:100770009E0181110FC081E080939E0110927E0145
:1007800009C0803C09F4A6CF883C09F4A3CF883B7C
:1007900009F07DCFE0919F0181E08E0F80939F0152
:1007A000F0E0E258FE4F80818093BB0090919F0162
:1007B00080919E0129C08091C1018093BB0085EC8E
:1007C0008093BC0064CF9091E3018091E20198177F
:1007D00058F5E091E30181E08E0F8093E301F0E0B2
:1007E000EE53FE4F8081E9CFE091E30181E08E0F6F
:1007F0008093E3018091BB00F0E0EE53FE4F8083D5
:100800009091E3018091E2019817C8F285E8D8CF72
:10081000E091E30181E08E0F8093E3018091BB00C2
:10082000F0E0EE53FE4F80838091150281115CCF82
:1008300081E08093140284EA8093BC001092160237
:1008400026CF85EC8093BC00109216028091C001E7
:10085000803230F4E091C001F0E0E056FE4F1082AB
:100860006091C00170E0E0911002F091110280EA05
:1008700091E009951092C0010ACF1092E40134CFA3
:10088000EBE1F2E01382128288EE93E0A0E0B0E0A8
:1008900084839583A683B7838CE091E091838083E2
:1008A000E7E2F2E0138212828EE191E0918380838D
:1008B00087E2848380E1818782E0828713860895BE
:1008C000789484B5826084BD84B5816084BD85B52B
:1008D000826085BD85B5816085BD80916E00816037
:1008E00080936E00109281008091810082608093DD
:1008F00081008091810081608093810080918000DF
:100900008160809380008091B10084608093B10009
:100910008091B00081608093B00080917A00846003
:1009200080937A0080917A00826080937A0080912F
:100930007A00816080937A0080917A008068809349
:100940007A001092C10010921A02109219021092AD
:100950001802109217021092160281E0809315027D
:100960001092140282E10E94820083E10E948200C0
:100970008091B9008E7F8093B9008091B9008D7FFE
:100980008093B90088E48093B80085E48093BC002C
:1009900089EC90E090931302809312028AEC90E02D
:1009A000909311028093100210922C0280913102D8
:1009B000823018F098E090932C0280932F0262E32B
:1009C00070E080E090E00E941D016091320287E2B9
:1009D00092E00E94070268EE73E080E090E00E94DF
:1009E0001D0160E387E292E00E946E02CBE4D6E450
:1009F000CE010197F1F760E387E292E00E946E0278
:100A00002197F1F760E387E292E00E946E0283E5AE
:100A100092E00197F1F760E287E292E00E946E02B5
:100A200060912C02606240E087E292E00E948702BF
:100A300084E080932D0240E06CE087E292E00E9427
:100A4000870240E061E087E292E00E948702CBE308
:100A5000DFE1CE010197F1F782E080932E0240E0C2
:100A600066E087E292E00E94870240E062E087E26F
:100A700092E00E9487022197F1F788E0809332028A
:100A800060E087E292E00E94070260E08AE00E9454
:100A90009E0240E150E066E271E087E292E00E944F
:100AA000CB0061E081E00E949E0246E250E067E3F5
:100AB00071E087E292E00E94CB00C0E0D0E040E02D
:100AC00068E187E292E00E94870264EF71E080E0D3
:100AD00090E00E941D01209791F30E940000EFCF4B
:100AE000EE0FFF1F0590F491E02D0994F894FFCFCD
:100AF000000040001400540000000000D801AB01C9
:100B00006B028101A4019101820100000000D10269
:100B1000CB006B024F01435552534F2044452041B7
:100B2000524455494E4F0068747470733A2F2F63C6
:100B30006F6E74726F6C6175746F6D617469636FE1
:0E0B4000656475636163696F6E2E636F6D008F
:00000001FF
