:100000000C945E000C9486000C9486000C94860080
:100010000C9486000C9486000C9486000C94860048
:100020000C9486000C9486000C9486000C94AD030E
:100030000C9486000C9486000C9486000C94860028
:100040000C940B030C9486000C947B030C945503C6
:100050000C9486000C9486000C9486000C94860008
:100060000C9486000C9486000000000024002700F9
:100070002A0000000000250028002B0004040404CE
:100080000404040402020202020203030303030342
:10009000010204081020408001020408102001021F
:1000A00004081020000000080002010000030407FB
:1000B00000000000000000006E04830611241FBE33
:1000C000CFEFD8E0DEBFCDBF12E0A0E0B1E0E4EFBB
:1000D000F2E102C005900D92AA33B107D9F723E0EF
:1000E000AAE3B2E001C01D92A331B207E1F710E02C
:1000F000CDE5D0E004C02197FE010E946B07CC350E
:10010000D107C9F70E94DC040C946D090C9400001F
:10011000CF92DF92EF92FF92DC01A03282E0B8072B
:100120000CF03EC0B7FD06C0A53BB1052CF0A4EB1A
:10013000B0E002C0A0E0B0E08091070328E830E022
:100140006901C81AD10887FDD394CC0CDD1CCC0CF6
:10015000DD1C0D2C000CEE08FF088091080328E53B
:1001600032E0281B310987FD3395220F331F220F00
:10017000331FA901330F660B770B9A01AB012C19C2
:100180003D094E095F090E94EF0624EB30E040E094
:1001900050E00E94C506C20ED31EE41EF51ED60115
:1001A000909106039C3098F58091070348E850E051
:1001B000481B510987FD5395440F551F440F551F88
:1001C000A417B5078CF08091080328E532E0281BBE
:1001D000310987FD3395220F331F220F331FAD01E5
:1001E0002A173B070CF4A90142505109440F551F2F
:1001F0002FB7F894892F90E0FC01EE0FFF1F8E0FB0
:100200009F1FFC01EF51FD4F528341832FBFFF9091
:10021000EF90DF90CF90089590E0FC01EC55FF4FF8
:100220002491FC01E057FF4F3491FC01E458FF4F4B
:10023000E491EE2309F43CC0222339F1233091F0FC
:1002400038F42130A9F0223001F584B58F7D12C039
:10025000273091F02830A1F02430B9F4809180004B
:100260008F7D03C0809180008F77809380000DC0C8
:1002700084B58F7784BD09C08091B0008F7703C0AB
:100280008091B0008F7D8093B000F0E0EE0FFF1FF3
:10029000EE58FF4FA591B4919FB7F894611104C037
:1002A0008C913095382302C0EC913E2B3C939FBF3C
:1002B00008953FB7F8948091400290914102A09137
:1002C0004202B091430226B5A89B05C02F3F19F00A
:1002D0000196A11DB11D3FBFBA2FA92F982F8827C6
:1002E000820F911DA11DB11DBC01CD0142E0660F21
:1002F000771F881F991F4A95D1F70895CF92DF92F3
:10030000EF92FF920F931F93CF93DF936C017A01CB
:100310008B01C0E0D0E0CE15DF0581F0D8016D91F2
:100320008D01D601ED91FC910190F081E02DC60187
:100330000995892B11F02196EECF7E01C701DF913F
:10034000CF911F910F91FF90EF90DF90CF90089584
:10035000089580E090E00895FC01538D448D252F91
:1003600030E0842F90E0821B930B541710F0CF964F
:10037000089501970895FC01918D828D981761F081
:10038000828DDF01A80FB11D5D968C91928D9F5FCC
:100390009F73928F90E008958FEF9FEF0895FC0177
:1003A000918D828D981731F0828DE80FF11D858D2A
:1003B00090E008958FEF9FEF0895FC01918D228DBD
:1003C000892F90E0805C9F4F821B91098F73992742
:1003D000089584E492E00E94DD0121E0892B09F474
:1003E00020E0822F0895FC01848DDF01A80FB11D4C
:1003F000A35ABF4F2C91848D90E001968F7399275B
:10040000848FA689B7892C93A089B1898C91837038
:1004100080648C93938D848D981306C00288F38931
:10042000E02D80818F7D80830895EF92FF920F935E
:100430001F93CF93DF93EC0181E0888F9B8D8C8D90
:10044000981305C0E889F989808185FD26C0F62EBC
:100450000B8D10E00F5F1F4F0F731127E02E8C8D57
:10046000E8120CC00FB607FCFACFE889F989808141
:1004700085FFF5CFCE010E94F301F1CF8B8DFE01F8
:10048000E80FF11DE35AFF4FF0829FB7F8940B8FEE
:10049000EA89FB89808180620AC09FB7F894EE895F
:1004A000FF896083E889F989808183708064808313
:1004B0009FBF81E090E0DF91CF911F910F91FF905E
:1004C000EF900895CF93DF93EC01888D8823C9F0D6
:1004D000EA89FB89808185FD05C0A889B9898C914D
:1004E00086FD0FC00FB607FCF5CF808185FFF2CFE8
:1004F000A889B9898C9185FFEDCFCE010E94F301C7
:10050000E7CFDF91CF91089580E090E0892B29F02B
:100510000E94E90181110C9400000895CF93DF93AC
:10052000009779F0FC0101900020E9F73197AF01C5
:10053000481B590BBC0184E492E00E947E01EC014F
:1005400002C0C0E0D0E042E050E06AE171E084E443
:1005500092E00E947E018C0F9D1FDF91CF91089544
:10056000CF93DF93EC018091090390910A030097E8
:1005700039F020910B0330910C032C173D07B8F490
:10058000BE016F5F7F4F0E949208009791F0909399
:100590000A0380930903D0930C03C0930B032091AB
:1005A0000D0330910E03232B11F4FC01108281E026
:1005B00001C080E0DF91CF910895CF93DF93EC01EC
:1005C0000E94B0022091090330910A03811113C0E7
:1005D0002115310519F0C9010E94090810920A037A
:1005E0001092090310920E0310920D0310920C0347
:1005F00010920B0309C0D0930E03C0930D036CE15E
:1006000071E0C9010E94660989E093E0DF91CF9112
:1006100008950E9458091F920F920FB60F9211244D
:100620002F933F938F939F93AF93BF9380913C02FF
:1006300090913D02A0913E02B0913F0230913B0269
:1006400023E0230F2D3720F40196A11DB11D05C015
:1006500026E8230F0296A11DB11D20933B02809333
:100660003C0290933D02A0933E02B0933F028091E2
:10067000400290914102A0914202B0914302019642
:10068000A11DB11D8093400290934102A0934202AC
:10069000B0934302BF91AF919F918F913F912F9162
:1006A0000F900FBE0F901F9018951F920F920FB6CC
:1006B0000F9211242F933F934F935F936F937F93E8
:1006C0008F939F93AF93BF93EF93FF9384E492E054
:1006D0000E94F301FF91EF91BF91AF919F918F9194
:1006E0007F916F915F914F913F912F910F900FBE2E
:1006F0000F901F9018951F920F920FB60F92112412
:100700002F938F939F93EF93FF93E0915402F09177
:1007100055028081E0915A02F0915B0282FD12C085
:10072000908180915D028F5F8F7320915E028217AE
:1007300051F0E0915D02F0E0EC5BFD4F958F80930E
:100740005D0201C08081FF91EF919F918F912F9168
:100750000F900FBE0F901F9018951F920F920FB61B
:100760000F9211242F933F934F935F936F937F9337
:100770008F939F93AF93BF93EF93FF9380913A0230
:1007800087FF05C010928500109284001BC0209145
:100790003A02022E000C330B8091050390E02817DB
:1007A000390784F480913A02082E000C990BFC0161
:1007B000EE0FFF1F8E0F9F1FFC01EF51FD4F808139
:1007C00086FD15C080913A028F5F80933A02209196
:1007D0003A02022E000C330B8091050390E028179B
:1007E0003907C4F480913A028C3064F113C08091CF
:1007F0003A02082E000C990BFC01EE0FFF1F8E0F22
:100800009F1FFC01EF51FD4F808160E08F730E94BC
:100810000C01D8CF8091840090918500049680349B
:100820009C4918F480E49CE905C080918400909173
:100830008500049690938900809388008FEF8093C1
:100840003A023BC0209184003091850080913A02A9
:10085000082E000C990BFC01EE0FFF1F8E0F9F1F3F
:10086000FC01EF51FD4F81819281820F931F909384
:1008700089008093880080913A02082E000C990B21
:10088000FC01EE0FFF1F8E0F9F1FFC01EF51FD4F6C
:10089000808186FF12C080913A02082E000C990BCD
:1008A000FC01EE0FFF1F8E0F9F1FFC01EF51FD4F4C
:1008B000808161E08F730E940C01FF91EF91BF91E5
:1008C000AF919F918F917F916F915F914F913F91E8
:1008D0002F910F900FBE0F901F9018951092470206
:1008E0001092460288EE93E0A0E0B0E080934802C8
:1008F00090934902A0934A02B0934B028CE091E09E
:10090000909345028093440285EC90E090935102CD
:100910008093500284EC90E09093530280935202B3
:1009200080EC90E0909355028093540281EC90E02B
:10093000909357028093560282EC90E09093590274
:100940008093580286EC90E090935B0280935A0269
:1009500010925D0210925E0210925F02109260028D
:1009600010920A031092090310920C0310920B03C9
:1009700010920E0310920D0380E090E00E94DD02C1
:10098000809105038C30A0F491E0980F90930503BB
:100990008093060390E0FC01EE0FFF1F8E0F9F1F58
:1009A000FC01EF51FD4F88EB9BE09283818308951A
:1009B0008FEF809306030895CF93DF9300D0CDB7D8
:1009C000DEB7789484B5826084BD84B5816084BDCF
:1009D00085B5826085BD85B5816085BD80916E00DD
:1009E000816080936E00109281008091810082600E
:1009F000809381008091810081608093810080914B
:100A000080008160809380008091B1008460809339
:100A1000B1008091B00081608093B00080917A0035
:100A2000846080937A0080917A00826080937A005B
:100A300080917A00816080937A0080917A0080684A
:100A400080937A001092C100E0915402F091550217
:100A500082E08083E0915002F09151021082E09197
:100A60005202F09153028FEC808310925C02E0916D
:100A70005802F091590286E08083E0915602F0918D
:100A80005702808180618083E0915602F091570285
:100A9000808188608083E0915602F09157028081C6
:100AA00080688083E0915602F091570280818F7DAB
:100AB00080838DE191E00E948E02809106038C304C
:100AC00008F068C0E5E9F0E02491E1E8F0E0849105
:100AD000882399F090E0880F991FFC01E859FF4F97
:100AE000A591B491FC01EE58FF4F859194918FB779
:100AF000F894EC91E22BEC938FBF80910603E82FE2
:100B0000F0E09F01220F331FE20FF31FEF51FD4F63
:100B10009081907C95609083109207031092080357
:100B20006CE00E945F072CE0829FB001112440E03E
:100B300050E09B01240F351FF901EE0FFF1F2E0F10
:100B40003F1FF901EF51FD4F908196FD16C04F5F99
:100B50005F4F4C30510569F781110FC01092800032
:100B600082E0809381001092850010928400B19AF7
:100B700080916F00826080936F00E0910603F0E047
:100B8000CF01880F991FE80FF91FEF51FD4F8081AA
:100B9000806480838AE590E00E94880001E010E094
:100BA00080910001909101010197C1F481E391E0EE
:100BB0000E948E0283E391E00E948E0281E791E021
:100BC0000E948E0283E891E00E948E0287E991E004
:100BD0000E948E02109201011092000184E492E0C2
:100BE0000E94DD01892B09F44CC00E9459014B0180
:100BF0005C0185E0C82ED12CE12CF12C0E9459011A
:100C0000DC01CB0188199909AA09BB09883E9340E8
:100C1000A105B10598F381E0C81AD108E108F108EF
:100C200098EE890E93E0991EA11CB11CC114D10449
:100C3000E104F10419F784E492E00E94BB01898386
:100C40001A82E0900D03F0900E038FEFE81AF80A75
:100C5000C7010E94B002882309F220910903309154
:100C60000A0380910D0390910E03BE016F5F7F4FC9
:100C7000820F931F0E946609F0920E03E0920D030B
:100C8000ADCF8091090390910A03009719F00E945B
:100C9000890603C060E070E0CB019B01611571051E
:100CA00059F16150710963307105F0F4223031055A
:100CB00069F02330310589F021303105C9F48AE526
:100CC00090E00E94880080EB91E010C080E090E00E
:100CD0000E9488008DEC91E009C084EB90E00E94B6
:100CE00088008DEE91E002C08EE092E00E948E02BC
:100CF000109301010093000180E090E00E94DD026A
:100D00000E9484024DCF8091090390910A030C94B4
:100D100009081F93FC0199278827BC01E8941191C9
:100D20001032E9F3193010F01E30C8F31B3251F0C5
:100D30001D3249F4689406C00E94B006610F711D0F
:100D4000811D911D119110531A30B0F33EF490950E
:100D50008095709561957F4F8F4F9F4F1F9108959C
:100D6000592F482F372F262F660F771F881F991F5F
:100D7000660F771F881F991F620F731F841F951FAF
:100D8000660F771F881F991F0895052E97FB1EF485
:100D900000940E94DC0657FD07D00E942E0707FC36
:100DA00003D04EF40C94DC06509540953095219577
:100DB0003F4F4F4F5F4F0895909580957095619587
:100DC0007F4F8F4F9F4F08950E945007A59F900D12
:100DD000B49F900DA49F800D911D11240895B7FF1D
:100DE0000C94E4060E94E406821B930B08952F9254
:100DF0003F924F925F926F927F928F929F92AF92AB
:100E0000BF92CF92DF92EF92FF920F931F93CF93F7
:100E1000DF93CDB7DEB7CA1BDB0B0FB6F894DEBF8E
:100E20000FBECDBF09942A88398848885F846E84B4
:100E30007D848C849B84AA84B984C884DF80EE80FE
:100E4000FD800C811B81AA81B981CE0FD11D0FB607
:100E5000F894DEBF0FBECDBFED010895A1E21A2EBA
:100E6000AA1BBB1BFD010DC0AA1FBB1FEE1FFF1F4E
:100E7000A217B307E407F50720F0A21BB30BE40B9E
:100E8000F50B661F771F881F991F1A9469F76095E5
:100E90007095809590959B01AC01BD01CF0108959F
:100EA000A29FB001B39FC001A39F700D811D1124AB
:100EB000911DB29F700D811D1124911D0895991BE4
:100EC00079E004C0991F961708F0961B881F7A9541
:100ED000C9F780950895EE0FFF1F0590F491E02D5E
:100EE00009940F931F93CF93DF938230910510F4F1
:100EF00082E090E0E0911103F091120320E030E0F5
:100F0000A0E0B0E0309719F1408151810281138156
:100F100048175907C8F08417950769F4109731F0FE
:100F200012960C93129713961C9327C000931103EB
:100F30001093120322C02115310519F042175307EF
:100F400018F49A01BD01EF01DF01F801DBCF211593
:100F50003105F9F0281B390B2430310580F48A81E2
:100F60009B816115710521F0FB019383828304C08D
:100F70009093120380931103FE01329644C0FE0148
:100F8000E20FF31F81939193225031093983288313
:100F90003AC020910F0330911003232B41F420918C
:100FA0000401309105013093100320930F03209129
:100FB0000201309103012115310541F42DB73EB7EF
:100FC0004091060150910701241B350BE0910F035E
:100FD000F0911003E217F307A0F42E1B3F0B281724
:100FE000390778F0AC014E5F5F4F2417350748F0A2
:100FF0004E0F5F1F5093100340930F038193919303
:1010000002C0E0E0F0E0CF01DF91CF911F910F919E
:101010000895CF93DF93009709F481C0FC013297C4
:1010200013821282A0911103B0911203109781F4E0
:1010300020813181820F931F20910F033091100383
:101040002817390751F5F0931003E0930F0367C099
:10105000ED0120E030E0CE17DF0740F44A815B81EC
:101060009E0141155105F1F0EA01F5CFD383C2830A
:1010700040815181840F951FC817D90759F4888181
:101080009981840F951F0296918380838A819B8129
:10109000938382832115310529F4F0931203E093A1
:1010A00011033DC0E901FB83EA8349915991C40FC3
:1010B000D51FEC17FD0761F480819181840F951F86
:1010C0000296E90199838883828193819B838A8335
:1010D000E0E0F0E012968D919C911397009719F043
:1010E000FD01DC01F7CF8D919C9111979D012E5F41
:1010F0003F4F820F931F20910F0330911003281749
:10110000390769F4309729F41092120310921103F1
:1011100002C013821282B0931003A0930F03DF91D9
:10112000CF910895A0E0B0E0E8E9F8E00C94FB0668
:10113000EC01009721F4CB010E947107B4C0FC01BF
:10114000E60FF71F9C0122503109E217F30708F45C
:10115000A8C0D9010D911C91119706171707B0F07F
:101160000530110508F49BC0C8010497861797073E
:1011700008F495C002501109061B170B0193119337
:101180006D937C93CF010E94090889C05B01A01A6E
:10119000B10A4C01800E911EA0911103B09112036F
:1011A000612C712CE12CF12C109709F446C08D9123
:1011B0009C911197A815B905B1F56C0142E0C40ED8
:1011C000D11CCA14DB0478F14C018A189B08640115
:1011D00042E0C40ED11C1296BC9012971396AC91AB
:1011E000B5E0CB16D10440F0B282A3839182808215
:1011F000D9016D937C9309C00E5F1F4F800F911F23
:10120000F90191838083EB2DFA2FE114F10431F081
:10121000D7011396FC93EE93129741C0F0931203FB
:10122000E09311033CC06816790608F43C017D0187
:1012300012960D90BC91A02DB7CF80910F03909185
:10124000100388169906E1F466167706C8F48091B3
:10125000020190910301009741F48DB79EB7409130
:10126000060150910701841B950BE817F907C8F494
:10127000F0931003E0930F03F901718360830FC0B3
:10128000CB010E9471077C01009759F0A801BE01B3
:101290000E945D09CE010E940908C70104C0CE0169
:1012A00002C080E090E0CDB7DEB7EEE00C94170707
:1012B00081E090E0F8940C946D09FB01DC0102C020
:1012C00001900D9241505040D8F70895FB01DC0188
:1012D00001900D920020E1F7089510E0CDE5D0E0F7
:1012E00004C0FE010E946B072196CE35D107C9F7D5
:0412F000F894FFCFA0
:1012F40001000000130380000000000015027E01BD
:10130400AC016202DD01BB01CF010D0A005365721D
:10131400766F20333630202D2041726475696E6FEC
:101324000020002D2D2D2D2D2D2D2D2D2D2D2D205D
:10133400204449475549544520554E41204F504378
:1013440049C3934E20454E545245203120592033F1
:101354002020202D2D2D2D2D2D2D2D2D2D2D2D2DE0
:101364000031292020446574656E6572204D6F74C8
:101374006F72003229202053656E7469646F2048AF
:101384006F726172696F003329202053656E74692E
:10139400646F20416E74692D486F726172696F00C9
:1013A4003E3E3E3E3E204D6F746F72204445544590
:1013B4004E49444F21203C3C3C3C3C3C003E3E3E9C
:1013C4003E3E20474952414E444F2053454E5449D6
:1013D400444F204357203C3C3C3C3C3C003E3E3E7A
:1013E4003E3E20474952414E444F2053454E5449B6
:1013F400444F20434357203C3C3C3C3C3C00202091
:10140400204F504349C3934E20494E56414C4944C2
:10141400412121212120494E54454E5445204E5509
:0A1424004556414D454E5445000069
:107E0000112484B714BE81FFF0D085E080938100F7
:107E100082E08093C00088E18093C10086E0809377
:107E2000C20080E18093C4008EE0C9D0259A86E02C
:107E300020E33CEF91E0309385002093840096BBD3
:107E4000B09BFECF1D9AA8958150A9F7CC24DD24C4
:107E500088248394B5E0AB2EA1E19A2EF3E0BF2EE7
:107E6000A2D0813461F49FD0082FAFD0023811F036
:107E7000013811F484E001C083E08DD089C08234E0
:107E800011F484E103C0853419F485E0A6D080C0E4
:107E9000853579F488D0E82EFF2485D0082F10E0AE
:107EA000102F00270E291F29000F111F8ED06801E7
:107EB0006FC0863521F484E090D080E0DECF843638
:107EC00009F040C070D06FD0082F6DD080E0C81688
:107ED00080E7D80618F4F601B7BEE895C0E0D1E017
:107EE00062D089930C17E1F7F0E0CF16F0E7DF06D8
:107EF00018F0F601B7BEE89568D007B600FCFDCFD4
:107F0000A601A0E0B1E02C9130E011968C91119780
:107F100090E0982F8827822B932B1296FA010C0160
:107F200087BEE89511244E5F5F4FF1E0A038BF0790
:107F300051F7F601A7BEE89507B600FCFDCF97BE46
:107F4000E89526C08437B1F42ED02DD0F82E2BD052
:107F50003CD0F601EF2C8F010F5F1F4F84911BD097
:107F6000EA94F801C1F70894C11CD11CFA94CF0C13
:107F7000D11C0EC0853739F428D08EE10CD085E9AC
:107F80000AD08FE07ACF813511F488E018D01DD067
:107F900080E101D065CF982F8091C00085FFFCCF94
:107FA0009093C60008958091C00087FFFCCF809118
:107FB000C00084FD01C0A8958091C6000895E0E648
:107FC000F0E098E1908380830895EDDF803219F02E
:107FD00088E0F5DFFFCF84E1DECF1F93182FE3DFCA
:107FE0001150E9F7F2DF1F91089580E0E8DFEE27F6
:047FF000FF270994CA
:027FFE00040479
:0400000300007E007B
:00000001FF
